{
  "_format": "hh-sol-artifact-1",
  "contractName": "BackgroundFactory",
  "sourceName": "contracts/test/BackgroundFactory.sol",
  "abi": [
    {
      "inputs": [
        {
          "internalType": "address",
          "name": "vrfCoordinatorV2",
          "type": "address"
        },
        {
          "internalType": "bytes32",
          "name": "gasLane",
          "type": "bytes32"
        },
        {
          "internalType": "uint64",
          "name": "subscriptionId",
          "type": "uint64"
        },
        {
          "internalType": "uint32",
          "name": "callbackGasLimit",
          "type": "uint32"
        },
        {
          "internalType": "uint256",
          "name": "interval",
          "type": "uint256"
        }
      ],
      "stateMutability": "nonpayable",
      "type": "constructor"
    },
    {
      "inputs": [],
      "name": "BackgroundFactory__GameStillOPen",
      "type": "error"
    },
    {
      "inputs": [],
      "name": "BackgroundFactory__NotOWner",
      "type": "error"
    },
    {
      "inputs": [],
      "name": "BackgroundFactory__NotOpen",
      "type": "error"
    },
    {
      "inputs": [],
      "name": "BackgroundFactory__TransferFailed",
      "type": "error"
    },
    {
      "inputs": [
        {
          "internalType": "uint256",
          "name": "currentBalance",
          "type": "uint256"
        },
        {
          "internalType": "uint256",
          "name": "numPlayers",
          "type": "uint256"
        },
        {
          "internalType": "uint256",
          "name": "backgroundFactoryState",
          "type": "uint256"
        }
      ],
      "name": "BackgroundFactory__UpkeepNotNeeded",
      "type": "error"
    },
    {
      "inputs": [
        {
          "internalType": "address",
          "name": "have",
          "type": "address"
        },
        {
          "internalType": "address",
          "name": "want",
          "type": "address"
        }
      ],
      "name": "OnlyCoordinatorCanFulfill",
      "type": "error"
    },
    {
      "anonymous": false,
      "inputs": [
        {
          "indexed": true,
          "internalType": "uint256",
          "name": "dnapicked",
          "type": "uint256"
        }
      ],
      "name": "DnaPicked",
      "type": "event"
    },
    {
      "anonymous": false,
      "inputs": [
        {
          "indexed": true,
          "internalType": "address",
          "name": "player",
          "type": "address"
        }
      ],
      "name": "GameEnter",
      "type": "event"
    },
    {
      "anonymous": false,
      "inputs": [
        {
          "indexed": true,
          "internalType": "uint256",
          "name": "backgroundId",
          "type": "uint256"
        },
        {
          "indexed": true,
          "internalType": "string",
          "name": "name",
          "type": "string"
        },
        {
          "indexed": true,
          "internalType": "uint256",
          "name": "dna",
          "type": "uint256"
        }
      ],
      "name": "NewBackground",
      "type": "event"
    },
    {
      "anonymous": false,
      "inputs": [
        {
          "indexed": true,
          "internalType": "uint256",
          "name": "requestId",
          "type": "uint256"
        }
      ],
      "name": "RequestedRandomDna",
      "type": "event"
    },
    {
      "stateMutability": "payable",
      "type": "fallback"
    },
    {
      "inputs": [
        {
          "internalType": "bytes",
          "name": "",
          "type": "bytes"
        }
      ],
      "name": "checkUpkeep",
      "outputs": [
        {
          "internalType": "bool",
          "name": "upkeepNeeded",
          "type": "bool"
        },
        {
          "internalType": "bytes",
          "name": "",
          "type": "bytes"
        }
      ],
      "stateMutability": "nonpayable",
      "type": "function"
    },
    {
      "inputs": [
        {
          "internalType": "string",
          "name": "_name",
          "type": "string"
        }
      ],
      "name": "createRandomBackground",
      "outputs": [],
      "stateMutability": "nonpayable",
      "type": "function"
    },
    {
      "inputs": [
        {
          "internalType": "address",
          "name": "_s_playerAddress",
          "type": "address"
        }
      ],
      "name": "enterGame",
      "outputs": [],
      "stateMutability": "nonpayable",
      "type": "function"
    },
    {
      "inputs": [],
      "name": "getBackgroundFactoryState",
      "outputs": [
        {
          "internalType": "enum BackgroundFactory.BackgroundFactoryState",
          "name": "",
          "type": "uint8"
        }
      ],
      "stateMutability": "view",
      "type": "function"
    },
    {
      "inputs": [],
      "name": "getLatestTimeStamp",
      "outputs": [
        {
          "internalType": "uint256",
          "name": "",
          "type": "uint256"
        }
      ],
      "stateMutability": "view",
      "type": "function"
    },
    {
      "inputs": [],
      "name": "getNumberOfBackgrounds",
      "outputs": [
        {
          "internalType": "uint256",
          "name": "",
          "type": "uint256"
        }
      ],
      "stateMutability": "view",
      "type": "function"
    },
    {
      "inputs": [],
      "name": "getNumwords",
      "outputs": [
        {
          "internalType": "uint256",
          "name": "",
          "type": "uint256"
        }
      ],
      "stateMutability": "pure",
      "type": "function"
    },
    {
      "inputs": [],
      "name": "getOwner",
      "outputs": [
        {
          "internalType": "address",
          "name": "",
          "type": "address"
        }
      ],
      "stateMutability": "view",
      "type": "function"
    },
    {
      "inputs": [
        {
          "internalType": "uint256",
          "name": "index",
          "type": "uint256"
        }
      ],
      "name": "getPlayers",
      "outputs": [
        {
          "internalType": "address",
          "name": "",
          "type": "address"
        }
      ],
      "stateMutability": "view",
      "type": "function"
    },
    {
      "inputs": [],
      "name": "getRecentRandomBackground",
      "outputs": [
        {
          "internalType": "uint256",
          "name": "",
          "type": "uint256"
        }
      ],
      "stateMutability": "view",
      "type": "function"
    },
    {
      "inputs": [],
      "name": "getRequestConfirmations",
      "outputs": [
        {
          "internalType": "uint256",
          "name": "",
          "type": "uint256"
        }
      ],
      "stateMutability": "pure",
      "type": "function"
    },
    {
      "inputs": [
        {
          "internalType": "address",
          "name": "_s_playerAddress",
          "type": "address"
        }
      ],
      "name": "payGamer",
      "outputs": [],
      "stateMutability": "payable",
      "type": "function"
    },
    {
      "inputs": [
        {
          "internalType": "bytes",
          "name": "",
          "type": "bytes"
        }
      ],
      "name": "performUpkeep",
      "outputs": [],
      "stateMutability": "nonpayable",
      "type": "function"
    },
    {
      "inputs": [
        {
          "internalType": "uint256",
          "name": "requestId",
          "type": "uint256"
        },
        {
          "internalType": "uint256[]",
          "name": "randomWords",
          "type": "uint256[]"
        }
      ],
      "name": "rawFulfillRandomWords",
      "outputs": [],
      "stateMutability": "nonpayable",
      "type": "function"
    },
    {
      "inputs": [
        {
          "internalType": "uint256",
          "name": "",
          "type": "uint256"
        }
      ],
      "name": "s_backgrounds",
      "outputs": [
        {
          "internalType": "string",
          "name": "name",
          "type": "string"
        },
        {
          "internalType": "uint256",
          "name": "dna",
          "type": "uint256"
        }
      ],
      "stateMutability": "view",
      "type": "function"
    },
    {
      "stateMutability": "payable",
      "type": "receive"
    }
  ],
  "bytecode": "0x6101606040523480156200001257600080fd5b5060405162001fe138038062001fe18339818101604052810190620000389190620001db565b848073ffffffffffffffffffffffffffffffffffffffff1660808173ffffffffffffffffffffffffffffffffffffffff1660601b81525050503373ffffffffffffffffffffffffffffffffffffffff166101408173ffffffffffffffffffffffffffffffffffffffff1660601b815250508473ffffffffffffffffffffffffffffffffffffffff1660a08173ffffffffffffffffffffffffffffffffffffffff1660601b815250508360c081815250508267ffffffffffffffff1660e08167ffffffffffffffff1660c01b815250508163ffffffff166101008163ffffffff1660e01b815250506000600360006101000a81548160ff02191690836002811115620001485762000147620002cf565b5b021790555042600481905550806101208181525050505050505062000385565b600081519050620001798162000303565b92915050565b60008151905062000190816200031d565b92915050565b600081519050620001a78162000337565b92915050565b600081519050620001be8162000351565b92915050565b600081519050620001d5816200036b565b92915050565b600080600080600060a08688031215620001fa57620001f9620002fe565b5b60006200020a8882890162000168565b95505060206200021d888289016200017f565b94505060406200023088828901620001c4565b93505060606200024388828901620001ad565b9250506080620002568882890162000196565b9150509295509295909350565b6000620002708262000281565b9050919050565b6000819050919050565b600073ffffffffffffffffffffffffffffffffffffffff82169050919050565b6000819050919050565b600063ffffffff82169050919050565b600067ffffffffffffffff82169050919050565b7f4e487b7100000000000000000000000000000000000000000000000000000000600052602160045260246000fd5b600080fd5b6200030e8162000263565b81146200031a57600080fd5b50565b620003288162000277565b81146200033457600080fd5b50565b6200034281620002a1565b81146200034e57600080fd5b50565b6200035c81620002ab565b81146200036857600080fd5b50565b6200037681620002bb565b81146200038257600080fd5b50565b60805160601c60a05160601c60c05160e05160c01c6101005160e01c610120516101405160601c611be4620003fd600039600081816109770152610b110152600061090b015260006107790152600061075601526000610735015260006106f901526000818161045901526104ad0152611be46000f3fe6080604052600436106100ec5760003560e01c806351c66b3f1161008a5780636e04ff0d116100595780636e04ff0d146102ed57806371fe9be31461032b578063893d20e814610347578063c4df7ad514610372576100f3565b806351c66b3f1461024157806359f1b23c1461026c5780635f1b0fd81461029757806369657573146102c2576100f3565b806336240218116100c65780633624021814610187578063376af59f146101b25780634585e33b146101db578063460e204914610204576100f3565b80630f172b28146100f55780631fe543e314610133578063320229eb1461015c576100f3565b366100f357005b005b34801561010157600080fd5b5061011c6004803603810190610117919061126a565b61039b565b60405161012a92919061156c565b60405180910390f35b34801561013f57600080fd5b5061015a600480360381019061015591906112c4565b610457565b005b34801561016857600080fd5b50610171610517565b60405161017e919061159c565b60405180910390f35b34801561019357600080fd5b5061019c610521565b6040516101a9919061159c565b60405180910390f35b3480156101be57600080fd5b506101d960048036038101906101d4919061115e565b61052b565b005b3480156101e757600080fd5b5061020260048036038101906101fd919061118b565b610641565b005b34801561021057600080fd5b5061022b6004803603810190610226919061126a565b610841565b604051610238919061148a565b60405180910390f35b34801561024d57600080fd5b50610256610889565b6040516102639190611551565b60405180910390f35b34801561027857600080fd5b506102816108a0565b60405161028e919061159c565b60405180910390f35b3480156102a357600080fd5b506102ac6108af565b6040516102b9919061159c565b60405180910390f35b3480156102ce57600080fd5b506102d76108bc565b6040516102e4919061159c565b60405180910390f35b3480156102f957600080fd5b50610314600480360381019061030f91906111d8565b6108c8565b6040516103229291906114ce565b60405180910390f35b6103456004803603810190610340919061115e565b610975565b005b34801561035357600080fd5b5061035c610b0d565b604051610369919061148a565b60405180910390f35b34801561037e57600080fd5b5061039960048036038101906103949190611221565b610b35565b005b600081815481106103ab57600080fd5b90600052602060002090600202016000915090508060000180546103ce9061197f565b80601f01602080910402602001604051908101604052809291908181526020018280546103fa9061197f565b80156104475780601f1061041c57610100808354040283529160200191610447565b820191906000526020600020905b81548152906001019060200180831161042a57829003601f168201915b5050505050908060010154905082565b7f000000000000000000000000000000000000000000000000000000000000000073ffffffffffffffffffffffffffffffffffffffff163373ffffffffffffffffffffffffffffffffffffffff161461050957337f00000000000000000000000000000000000000000000000000000000000000006040517f1cf993f40000000000000000000000000000000000000000000000000000000081526004016105009291906114a5565b60405180910390fd5b6105138282610bb1565b5050565b6000600454905090565b6000600254905090565b6000600281111561053f5761053e611a71565b5b600360009054906101000a900460ff16600281111561056157610560611a71565b5b14610598576040517f2eb8a13900000000000000000000000000000000000000000000000000000000815260040160405180910390fd5b6001819080600181540180825580915050600190039060005260206000200160009091909190916101000a81548173ffffffffffffffffffffffffffffffffffffffff021916908373ffffffffffffffffffffffffffffffffffffffff1602179055508073ffffffffffffffffffffffffffffffffffffffff167fe64332e5b6c917ffff9dfb5d3f5395ffabb15d7b00534db43dd76fd9613e44ea60405160405180910390a250565b600061065b604051806020016040528060008152506108c8565b509050806106ca5747600180549050600360009054906101000a900460ff16600281111561068c5761068b611a71565b5b6040517f9b7732130000000000000000000000000000000000000000000000000000000081526004016106c1939291906115b7565b60405180910390fd5b6001600360006101000a81548160ff021916908360028111156106f0576106ef611a71565b5b021790555060007f000000000000000000000000000000000000000000000000000000000000000073ffffffffffffffffffffffffffffffffffffffff16635d3b1d307f00000000000000000000000000000000000000000000000000000000000000007f000000000000000000000000000000000000000000000000000000000000000060037f000000000000000000000000000000000000000000000000000000000000000060016040518663ffffffff1660e01b81526004016107ba9594939291906114fe565b602060405180830381600087803b1580156107d457600080fd5b505af11580156107e8573d6000803e3d6000fd5b505050506040513d601f19601f8201168201806040525081019061080c9190611297565b9050807f6957bae45d413eb91a986483fd556679f4d7b69c127f0f204a66df9f4533539860405160405180910390a250505050565b60006001828154811061085757610856611acf565b5b9060005260206000200160009054906101000a900473ffffffffffffffffffffffffffffffffffffffff169050919050565b6000600360009054906101000a900460ff16905090565b6000600163ffffffff16905090565b6000600361ffff16905090565b60008080549050905090565b600060606000600360009054906101000a900460ff1660028111156108f0576108ef611a71565b5b6000600281111561090457610903611a71565b5b14905060007f0000000000000000000000000000000000000000000000000000000000000000600454426109389190611860565b119050600080600180549050119050600080471190508380156109585750825b80156109615750815b801561096a5750805b955050505050915091565b7f000000000000000000000000000000000000000000000000000000000000000073ffffffffffffffffffffffffffffffffffffffff163373ffffffffffffffffffffffffffffffffffffffff16146109fa576040517f9c4ee2d700000000000000000000000000000000000000000000000000000000815260040160405180910390fd5b600280811115610a0d57610a0c611a71565b5b600360009054906101000a900460ff166002811115610a2f57610a2e611a71565b5b14610a66576040517fe14f976000000000000000000000000000000000000000000000000000000000815260040160405180910390fd5b60008173ffffffffffffffffffffffffffffffffffffffff1647604051610a8c90611475565b60006040518083038185875af1925050503d8060008114610ac9576040519150601f19603f3d011682016040523d82523d6000602084013e610ace565b606091505b5050905080610b09576040517f662de64600000000000000000000000000000000000000000000000000000000815260040160405180910390fd5b5050565b60007f0000000000000000000000000000000000000000000000000000000000000000905090565b60006002811115610b4957610b48611a71565b5b600360009054906101000a900460ff166002811115610b6b57610b6a611a71565b5b14610ba2576040517f2eb8a13900000000000000000000000000000000000000000000000000000000815260040160405180910390fd5b610bae81600254610cc3565b50565b60006010600a610bc19190611742565b82600081518110610bd557610bd4611acf565b5b6020026020010151610be791906119e2565b9050806002819055506000600360006101000a81548160ff02191690836002811115610c1657610c15611a71565b5b0217905550600080610c289190610d8b565b600067ffffffffffffffff811115610c4357610c42611afe565b5b604051908082528060200260200182016040528015610c715781602001602082028036833780820191505090505b5060019080519060200190610c87929190610daf565b50426004819055506002547fa1ab8376f1638500645ddbbc03cf5feab3a2e45ad3a6adcc0216dee94201af8460405160405180910390a2505050565b600060405180604001604052808481526020018381525090806001815401808255809150506001900390600052602060002090600202016000909190919091506000820151816000019080519060200190610d1f929190610e39565b5060208201518160010155505060006001600080549050610d409190611860565b90508183604051610d51919061145e565b6040518091039020827fbf3206d101e1b4d760ebe40e247bda1b71c5af30efe69bf9235831706faaef7c60405160405180910390a4505050565b5080546000825560020290600052602060002090810190610dac9190610ebf565b50565b828054828255906000526020600020908101928215610e28579160200282015b82811115610e275782518260006101000a81548173ffffffffffffffffffffffffffffffffffffffff021916908373ffffffffffffffffffffffffffffffffffffffff16021790555091602001919060010190610dcf565b5b509050610e359190610eee565b5090565b828054610e459061197f565b90600052602060002090601f016020900481019282610e675760008555610eae565b82601f10610e8057805160ff1916838001178555610eae565b82800160010185558215610eae579182015b82811115610ead578251825591602001919060010190610e92565b5b509050610ebb9190610eee565b5090565b5b80821115610eea5760008082016000610ed99190610f0b565b600182016000905550600201610ec0565b5090565b5b80821115610f07576000816000905550600101610eef565b5090565b508054610f179061197f565b6000825580601f10610f295750610f48565b601f016020900490600052602060002090810190610f479190610eee565b5b50565b6000610f5e610f5984611613565b6115ee565b90508083825260208201905082856020860282011115610f8157610f80611b37565b5b60005b85811015610fb15781610f978882611134565b845260208401935060208301925050600181019050610f84565b5050509392505050565b6000610fce610fc98461163f565b6115ee565b905082815260208101848484011115610fea57610fe9611b3c565b5b610ff584828561193d565b509392505050565b600061101061100b84611670565b6115ee565b90508281526020810184848401111561102c5761102b611b3c565b5b61103784828561193d565b509392505050565b60008135905061104e81611b80565b92915050565b600082601f83011261106957611068611b32565b5b8135611079848260208601610f4b565b91505092915050565b60008083601f84011261109857611097611b32565b5b8235905067ffffffffffffffff8111156110b5576110b4611b2d565b5b6020830191508360018202830111156110d1576110d0611b37565b5b9250929050565b600082601f8301126110ed576110ec611b32565b5b81356110fd848260208601610fbb565b91505092915050565b600082601f83011261111b5761111a611b32565b5b813561112b848260208601610ffd565b91505092915050565b60008135905061114381611b97565b92915050565b60008151905061115881611b97565b92915050565b60006020828403121561117457611173611b46565b5b60006111828482850161103f565b91505092915050565b600080602083850312156111a2576111a1611b46565b5b600083013567ffffffffffffffff8111156111c0576111bf611b41565b5b6111cc85828601611082565b92509250509250929050565b6000602082840312156111ee576111ed611b46565b5b600082013567ffffffffffffffff81111561120c5761120b611b41565b5b611218848285016110d8565b91505092915050565b60006020828403121561123757611236611b46565b5b600082013567ffffffffffffffff81111561125557611254611b41565b5b61126184828501611106565b91505092915050565b6000602082840312156112805761127f611b46565b5b600061128e84828501611134565b91505092915050565b6000602082840312156112ad576112ac611b46565b5b60006112bb84828501611149565b91505092915050565b600080604083850312156112db576112da611b46565b5b60006112e985828601611134565b925050602083013567ffffffffffffffff81111561130a57611309611b41565b5b61131685828601611054565b9150509250929050565b61132981611894565b82525050565b611338816118a6565b82525050565b611347816118b2565b82525050565b6000611358826116a1565b61136281856116b7565b935061137281856020860161194c565b61137b81611b4b565b840191505092915050565b61138f8161192b565b82525050565b60006113a0826116ac565b6113aa81856116d3565b93506113ba81856020860161194c565b6113c381611b4b565b840191505092915050565b60006113d9826116ac565b6113e381856116e4565b93506113f381856020860161194c565b80840191505092915050565b600061140c6000836116c8565b915061141782611b69565b600082019050919050565b61142b816118cf565b82525050565b61143a816118fd565b82525050565b61144981611907565b82525050565b61145881611917565b82525050565b600061146a82846113ce565b915081905092915050565b6000611480826113ff565b9150819050919050565b600060208201905061149f6000830184611320565b92915050565b60006040820190506114ba6000830185611320565b6114c76020830184611320565b9392505050565b60006040820190506114e3600083018561132f565b81810360208301526114f5818461134d565b90509392505050565b600060a082019050611513600083018861133e565b611520602083018761144f565b61152d6040830186611422565b61153a6060830185611440565b6115476080830184611440565b9695505050505050565b60006020820190506115666000830184611386565b92915050565b600060408201905081810360008301526115868185611395565b90506115956020830184611431565b9392505050565b60006020820190506115b16000830184611431565b92915050565b60006060820190506115cc6000830186611431565b6115d96020830185611431565b6115e66040830184611431565b949350505050565b60006115f8611609565b905061160482826119b1565b919050565b6000604051905090565b600067ffffffffffffffff82111561162e5761162d611afe565b5b602082029050602081019050919050565b600067ffffffffffffffff82111561165a57611659611afe565b5b61166382611b4b565b9050602081019050919050565b600067ffffffffffffffff82111561168b5761168a611afe565b5b61169482611b4b565b9050602081019050919050565b600081519050919050565b600081519050919050565b600082825260208201905092915050565b600081905092915050565b600082825260208201905092915050565b600081905092915050565b6000808291508390505b60018511156117395780860481111561171557611714611a13565b5b60018516156117245780820291505b808102905061173285611b5c565b94506116f9565b94509492505050565b600061174d826118fd565b9150611758836118fd565b92506117857fffffffffffffffffffffffffffffffffffffffffffffffffffffffffffffffff848461178d565b905092915050565b60008261179d5760019050611859565b816117ab5760009050611859565b81600181146117c157600281146117cb576117fa565b6001915050611859565b60ff8411156117dd576117dc611a13565b5b8360020a9150848211156117f4576117f3611a13565b5b50611859565b5060208310610133831016604e8410600b841016171561182f5782820a90508381111561182a57611829611a13565b5b611859565b61183c84848460016116ef565b9250905081840481111561185357611852611a13565b5b81810290505b9392505050565b600061186b826118fd565b9150611876836118fd565b92508282101561188957611888611a13565b5b828203905092915050565b600061189f826118dd565b9050919050565b60008115159050919050565b6000819050919050565b60008190506118ca82611b6c565b919050565b600061ffff82169050919050565b600073ffffffffffffffffffffffffffffffffffffffff82169050919050565b6000819050919050565b600063ffffffff82169050919050565b600067ffffffffffffffff82169050919050565b6000611936826118bc565b9050919050565b82818337600083830152505050565b60005b8381101561196a57808201518184015260208101905061194f565b83811115611979576000848401525b50505050565b6000600282049050600182168061199757607f821691505b602082108114156119ab576119aa611aa0565b5b50919050565b6119ba82611b4b565b810181811067ffffffffffffffff821117156119d9576119d8611afe565b5b80604052505050565b60006119ed826118fd565b91506119f8836118fd565b925082611a0857611a07611a42565b5b828206905092915050565b7f4e487b7100000000000000000000000000000000000000000000000000000000600052601160045260246000fd5b7f4e487b7100000000000000000000000000000000000000000000000000000000600052601260045260246000fd5b7f4e487b7100000000000000000000000000000000000000000000000000000000600052602160045260246000fd5b7f4e487b7100000000000000000000000000000000000000000000000000000000600052602260045260246000fd5b7f4e487b7100000000000000000000000000000000000000000000000000000000600052603260045260246000fd5b7f4e487b7100000000000000000000000000000000000000000000000000000000600052604160045260246000fd5b600080fd5b600080fd5b600080fd5b600080fd5b600080fd5b600080fd5b6000601f19601f8301169050919050565b60008160011c9050919050565b50565b60038110611b7d57611b7c611a71565b5b50565b611b8981611894565b8114611b9457600080fd5b50565b611ba0816118fd565b8114611bab57600080fd5b5056fea2646970667358221220b99b13be1b6a9322aec12aee18610ca8e3b9477039bb1ca9d23217032521d38e64736f6c63430008070033",
  "linkReferences": {},
  "deployedLinkReferences": {}
}