{
  "_format": "hh-sol-artifact-1",
  "contractName": "BackgroundFactory",
  "sourceName": "contracts/test/BackgroundFactory.sol",
  "abi": [
    {
      "inputs": [
        {
          "internalType": "address",
          "name": "vrfCoordinatorV2",
          "type": "address"
        },
        {
          "internalType": "bytes32",
          "name": "gasLane",
          "type": "bytes32"
        },
        {
          "internalType": "uint64",
          "name": "subscriptionId",
          "type": "uint64"
        },
        {
          "internalType": "uint32",
          "name": "callbackGasLimit",
          "type": "uint32"
        },
        {
          "internalType": "uint256",
          "name": "interval",
          "type": "uint256"
        }
      ],
      "stateMutability": "nonpayable",
      "type": "constructor"
    },
    {
      "inputs": [],
      "name": "BackgroundFactory__NotOWner",
      "type": "error"
    },
    {
      "inputs": [],
      "name": "BackgroundFactory__NotOpen",
      "type": "error"
    },
    {
      "inputs": [],
      "name": "BackgroundFactory__TransferFailed",
      "type": "error"
    },
    {
      "inputs": [
        {
          "internalType": "uint256",
          "name": "currentBalance",
          "type": "uint256"
        },
        {
          "internalType": "uint256",
          "name": "numPlayers",
          "type": "uint256"
        },
        {
          "internalType": "uint256",
          "name": "backgroundFactoryState",
          "type": "uint256"
        }
      ],
      "name": "BackgroundFactory__UpkeepNotNeeded",
      "type": "error"
    },
    {
      "inputs": [
        {
          "internalType": "address",
          "name": "have",
          "type": "address"
        },
        {
          "internalType": "address",
          "name": "want",
          "type": "address"
        }
      ],
      "name": "OnlyCoordinatorCanFulfill",
      "type": "error"
    },
    {
      "anonymous": false,
      "inputs": [
        {
          "indexed": true,
          "internalType": "address",
          "name": "player",
          "type": "address"
        }
      ],
      "name": "GameEnter",
      "type": "event"
    },
    {
      "anonymous": false,
      "inputs": [
        {
          "indexed": true,
          "internalType": "uint256",
          "name": "backgroundId",
          "type": "uint256"
        },
        {
          "indexed": true,
          "internalType": "string",
          "name": "name",
          "type": "string"
        },
        {
          "indexed": true,
          "internalType": "uint256",
          "name": "dna",
          "type": "uint256"
        }
      ],
      "name": "NewBackground",
      "type": "event"
    },
    {
      "anonymous": false,
      "inputs": [
        {
          "indexed": true,
          "internalType": "uint256",
          "name": "requestId",
          "type": "uint256"
        }
      ],
      "name": "RequestedRandomWord",
      "type": "event"
    },
    {
      "anonymous": false,
      "inputs": [
        {
          "indexed": true,
          "internalType": "address",
          "name": "winnerpicked",
          "type": "address"
        }
      ],
      "name": "WinnerPicked",
      "type": "event"
    },
    {
      "stateMutability": "payable",
      "type": "fallback"
    },
    {
      "inputs": [
        {
          "internalType": "bytes",
          "name": "",
          "type": "bytes"
        }
      ],
      "name": "checkUpkeep",
      "outputs": [
        {
          "internalType": "bool",
          "name": "upkeepNeeded",
          "type": "bool"
        },
        {
          "internalType": "bytes",
          "name": "",
          "type": "bytes"
        }
      ],
      "stateMutability": "nonpayable",
      "type": "function"
    },
    {
      "inputs": [
        {
          "internalType": "string",
          "name": "_name",
          "type": "string"
        }
      ],
      "name": "createRandomBackground",
      "outputs": [],
      "stateMutability": "nonpayable",
      "type": "function"
    },
    {
      "inputs": [
        {
          "internalType": "address",
          "name": "_s_playerAddress",
          "type": "address"
        }
      ],
      "name": "enterGame",
      "outputs": [],
      "stateMutability": "nonpayable",
      "type": "function"
    },
    {
      "inputs": [],
      "name": "getBackgroundFactoryState",
      "outputs": [
        {
          "internalType": "enum BackgroundFactory.BackgroundFactoryState",
          "name": "",
          "type": "uint8"
        }
      ],
      "stateMutability": "view",
      "type": "function"
    },
    {
      "inputs": [],
      "name": "getLatestTimeStamp",
      "outputs": [
        {
          "internalType": "uint256",
          "name": "",
          "type": "uint256"
        }
      ],
      "stateMutability": "view",
      "type": "function"
    },
    {
      "inputs": [],
      "name": "getNumberOfBackgrounds",
      "outputs": [
        {
          "internalType": "uint256",
          "name": "",
          "type": "uint256"
        }
      ],
      "stateMutability": "view",
      "type": "function"
    },
    {
      "inputs": [],
      "name": "getNumwords",
      "outputs": [
        {
          "internalType": "uint256",
          "name": "",
          "type": "uint256"
        }
      ],
      "stateMutability": "pure",
      "type": "function"
    },
    {
      "inputs": [],
      "name": "getOwner",
      "outputs": [
        {
          "internalType": "address",
          "name": "",
          "type": "address"
        }
      ],
      "stateMutability": "view",
      "type": "function"
    },
    {
      "inputs": [
        {
          "internalType": "uint256",
          "name": "index",
          "type": "uint256"
        }
      ],
      "name": "getPlayers",
      "outputs": [
        {
          "internalType": "address",
          "name": "",
          "type": "address"
        }
      ],
      "stateMutability": "view",
      "type": "function"
    },
    {
      "inputs": [],
      "name": "getRecentWinner",
      "outputs": [
        {
          "internalType": "address",
          "name": "",
          "type": "address"
        }
      ],
      "stateMutability": "view",
      "type": "function"
    },
    {
      "inputs": [],
      "name": "getRequestConfirmations",
      "outputs": [
        {
          "internalType": "uint256",
          "name": "",
          "type": "uint256"
        }
      ],
      "stateMutability": "pure",
      "type": "function"
    },
    {
      "inputs": [
        {
          "internalType": "address",
          "name": "_s_recentWinner",
          "type": "address"
        }
      ],
      "name": "payGamer",
      "outputs": [],
      "stateMutability": "payable",
      "type": "function"
    },
    {
      "inputs": [
        {
          "internalType": "bytes",
          "name": "",
          "type": "bytes"
        }
      ],
      "name": "performUpkeep",
      "outputs": [],
      "stateMutability": "nonpayable",
      "type": "function"
    },
    {
      "inputs": [
        {
          "internalType": "uint256",
          "name": "requestId",
          "type": "uint256"
        },
        {
          "internalType": "uint256[]",
          "name": "randomWords",
          "type": "uint256[]"
        }
      ],
      "name": "rawFulfillRandomWords",
      "outputs": [],
      "stateMutability": "nonpayable",
      "type": "function"
    },
    {
      "inputs": [
        {
          "internalType": "uint256",
          "name": "",
          "type": "uint256"
        }
      ],
      "name": "s_backgrounds",
      "outputs": [
        {
          "internalType": "string",
          "name": "name",
          "type": "string"
        },
        {
          "internalType": "uint256",
          "name": "dna",
          "type": "uint256"
        }
      ],
      "stateMutability": "view",
      "type": "function"
    },
    {
      "stateMutability": "payable",
      "type": "receive"
    }
  ],
  "bytecode": "0x6101606040523480156200001257600080fd5b506040516200201c3803806200201c8339818101604052810190620000389190620001db565b848073ffffffffffffffffffffffffffffffffffffffff1660808173ffffffffffffffffffffffffffffffffffffffff1660601b81525050503373ffffffffffffffffffffffffffffffffffffffff166101408173ffffffffffffffffffffffffffffffffffffffff1660601b815250508473ffffffffffffffffffffffffffffffffffffffff1660a08173ffffffffffffffffffffffffffffffffffffffff1660601b815250508360c081815250508267ffffffffffffffff1660e08167ffffffffffffffff1660c01b815250508163ffffffff166101008163ffffffff1660e01b815250506000600360006101000a81548160ff02191690836001811115620001485762000147620002cf565b5b021790555042600481905550806101208181525050505050505062000385565b600081519050620001798162000303565b92915050565b60008151905062000190816200031d565b92915050565b600081519050620001a78162000337565b92915050565b600081519050620001be8162000351565b92915050565b600081519050620001d5816200036b565b92915050565b600080600080600060a08688031215620001fa57620001f9620002fe565b5b60006200020a8882890162000168565b95505060206200021d888289016200017f565b94505060406200023088828901620001c4565b93505060606200024388828901620001ad565b9250506080620002568882890162000196565b9150509295509295909350565b6000620002708262000281565b9050919050565b6000819050919050565b600073ffffffffffffffffffffffffffffffffffffffff82169050919050565b6000819050919050565b600063ffffffff82169050919050565b600067ffffffffffffffff82169050919050565b7f4e487b7100000000000000000000000000000000000000000000000000000000600052602160045260246000fd5b600080fd5b6200030e8162000263565b81146200031a57600080fd5b50565b620003288162000277565b81146200033457600080fd5b50565b6200034281620002a1565b81146200034e57600080fd5b50565b6200035c81620002ab565b81146200036857600080fd5b50565b6200037681620002bb565b81146200038257600080fd5b50565b60805160601c60a05160601c60c05160e05160c01c6101005160e01c610120516101405160601c611c1f620003fd600039600081816109d80152610b060152600061096a015260006107ae0152600061078b0152600061076a0152600061072e01526000818161045901526104ad0152611c1f6000f3fe6080604052600436106100ec5760003560e01c806351c66b3f1161008a5780636e04ff0d116100595780636e04ff0d146102ed57806371fe9be31461032b578063893d20e814610347578063c4df7ad514610372576100f3565b806351c66b3f1461024157806359f1b23c1461026c5780635f1b0fd81461029757806369657573146102c2576100f3565b8063376af59f116100c6578063376af59f146101875780634585e33b146101b0578063460e2049146101d9578063473f1ddc14610216576100f3565b80630f172b28146100f55780631fe543e314610133578063320229eb1461015c576100f3565b366100f357005b005b34801561010157600080fd5b5061011c600480360381019061011791906112a5565b61039b565b60405161012a9291906115a7565b60405180910390f35b34801561013f57600080fd5b5061015a600480360381019061015591906112ff565b610457565b005b34801561016857600080fd5b50610171610517565b60405161017e91906115d7565b60405180910390f35b34801561019357600080fd5b506101ae60048036038101906101a99190611199565b610521565b005b3480156101bc57600080fd5b506101d760048036038101906101d291906111c6565b610676565b005b3480156101e557600080fd5b5061020060048036038101906101fb91906112a5565b610876565b60405161020d91906114c5565b60405180910390f35b34801561022257600080fd5b5061022b6108be565b60405161023891906114c5565b60405180910390f35b34801561024d57600080fd5b506102566108e8565b604051610263919061158c565b60405180910390f35b34801561027857600080fd5b506102816108ff565b60405161028e91906115d7565b60405180910390f35b3480156102a357600080fd5b506102ac61090e565b6040516102b991906115d7565b60405180910390f35b3480156102ce57600080fd5b506102d761091b565b6040516102e491906115d7565b60405180910390f35b3480156102f957600080fd5b50610314600480360381019061030f9190611213565b610927565b604051610322929190611509565b60405180910390f35b61034560048036038101906103409190611199565b6109d6565b005b34801561035357600080fd5b5061035c610b02565b60405161036991906114c5565b60405180910390f35b34801561037e57600080fd5b506103996004803603810190610394919061125c565b610b2a565b005b600081815481106103ab57600080fd5b90600052602060002090600202016000915090508060000180546103ce906119ba565b80601f01602080910402602001604051908101604052809291908181526020018280546103fa906119ba565b80156104475780601f1061041c57610100808354040283529160200191610447565b820191906000526020600020905b81548152906001019060200180831161042a57829003601f168201915b5050505050908060010154905082565b7f000000000000000000000000000000000000000000000000000000000000000073ffffffffffffffffffffffffffffffffffffffff163373ffffffffffffffffffffffffffffffffffffffff161461050957337f00000000000000000000000000000000000000000000000000000000000000006040517f1cf993f40000000000000000000000000000000000000000000000000000000081526004016105009291906114e0565b60405180910390fd5b6105138282610bb2565b5050565b6000600454905090565b6000600181111561053557610534611aac565b5b600360009054906101000a900460ff16600181111561055757610556611aac565b5b1461058e576040517f2eb8a13900000000000000000000000000000000000000000000000000000000815260040160405180910390fd5b6003600180549050106105cd576040517f2eb8a13900000000000000000000000000000000000000000000000000000000815260040160405180910390fd5b6001819080600181540180825580915050600190039060005260206000200160009091909190916101000a81548173ffffffffffffffffffffffffffffffffffffffff021916908373ffffffffffffffffffffffffffffffffffffffff1602179055508073ffffffffffffffffffffffffffffffffffffffff167fe64332e5b6c917ffff9dfb5d3f5395ffabb15d7b00534db43dd76fd9613e44ea60405160405180910390a250565b600061069060405180602001604052806000815250610927565b509050806106ff5747600180549050600360009054906101000a900460ff1660018111156106c1576106c0611aac565b5b6040517f9b7732130000000000000000000000000000000000000000000000000000000081526004016106f6939291906115f2565b60405180910390fd5b6001600360006101000a81548160ff0219169083600181111561072557610724611aac565b5b021790555060007f000000000000000000000000000000000000000000000000000000000000000073ffffffffffffffffffffffffffffffffffffffff16635d3b1d307f00000000000000000000000000000000000000000000000000000000000000007f000000000000000000000000000000000000000000000000000000000000000060037f000000000000000000000000000000000000000000000000000000000000000060016040518663ffffffff1660e01b81526004016107ef959493929190611539565b602060405180830381600087803b15801561080957600080fd5b505af115801561081d573d6000803e3d6000fd5b505050506040513d601f19601f8201168201806040525081019061084191906112d2565b9050807f98c5f2bfaf5449ef4898f219324ee6aa9d0e8992cc54305c2f520919650f0bfa60405160405180910390a250505050565b60006001828154811061088c5761088b611b0a565b5b9060005260206000200160009054906101000a900473ffffffffffffffffffffffffffffffffffffffff169050919050565b6000600660009054906101000a900473ffffffffffffffffffffffffffffffffffffffff16905090565b6000600360009054906101000a900460ff16905090565b6000600163ffffffff16905090565b6000600361ffff16905090565b60008080549050905090565b600060606000600360009054906101000a900460ff16600181111561094f5761094e611aac565b5b6000600181111561096357610962611aac565b5b14905060007f000000000000000000000000000000000000000000000000000000000000000060045442610997919061189b565b1190506000600360018054905010159050600080471190508380156109b95750825b80156109c25750815b80156109cb5750805b955050505050915091565b7f000000000000000000000000000000000000000000000000000000000000000073ffffffffffffffffffffffffffffffffffffffff163373ffffffffffffffffffffffffffffffffffffffff1614610a5b576040517f9c4ee2d700000000000000000000000000000000000000000000000000000000815260040160405180910390fd5b60008173ffffffffffffffffffffffffffffffffffffffff1634604051610a81906114b0565b60006040518083038185875af1925050503d8060008114610abe576040519150601f19603f3d011682016040523d82523d6000602084013e610ac3565b606091505b5050905080610afe576040517f662de64600000000000000000000000000000000000000000000000000000000815260040160405180910390fd5b5050565b60007f0000000000000000000000000000000000000000000000000000000000000000905090565b60006001811115610b3e57610b3d611aac565b5b600360009054906101000a900460ff166001811115610b6057610b5f611aac565b5b14610b97576040517f2eb8a13900000000000000000000000000000000000000000000000000000000815260040160405180910390fd5b6000610ba282610d41565b9050610bae8282610d91565b5050565b600060018054905082600081518110610bce57610bcd611b0a565b5b6020026020010151610be09190611a1d565b9050600060018281548110610bf857610bf7611b0a565b5b9060005260206000200160009054906101000a900473ffffffffffffffffffffffffffffffffffffffff16905080600660006101000a81548173ffffffffffffffffffffffffffffffffffffffff021916908373ffffffffffffffffffffffffffffffffffffffff1602179055506000600360006101000a81548160ff02191690836001811115610c8c57610c8b611aac565b5b0217905550600067ffffffffffffffff811115610cac57610cab611b39565b5b604051908082528060200260200182016040528015610cda5781602001602082028036833780820191505090505b5060019080519060200190610cf0929190610e59565b50426004819055508073ffffffffffffffffffffffffffffffffffffffff167f5b690ec4a06fe979403046eaeea5b3ce38524683c3001f662c8b5a829632f7df60405160405180910390a250505050565b60008082604051602001610d559190611499565b6040516020818303038152906040528051906020012060001c90506010600a610d7e919061177d565b81610d899190611a1d565b915050919050565b600060405180604001604052808481526020018381525090806001815401808255809150506001900390600052602060002090600202016000909190919091506000820151816000019080519060200190610ded929190610ee3565b5060208201518160010155505060006001600080549050610e0e919061189b565b90508183604051610e1f9190611499565b6040518091039020827fbf3206d101e1b4d760ebe40e247bda1b71c5af30efe69bf9235831706faaef7c60405160405180910390a4505050565b828054828255906000526020600020908101928215610ed2579160200282015b82811115610ed15782518260006101000a81548173ffffffffffffffffffffffffffffffffffffffff021916908373ffffffffffffffffffffffffffffffffffffffff16021790555091602001919060010190610e79565b5b509050610edf9190610f69565b5090565b828054610eef906119ba565b90600052602060002090601f016020900481019282610f115760008555610f58565b82601f10610f2a57805160ff1916838001178555610f58565b82800160010185558215610f58579182015b82811115610f57578251825591602001919060010190610f3c565b5b509050610f659190610f69565b5090565b5b80821115610f82576000816000905550600101610f6a565b5090565b6000610f99610f948461164e565b611629565b90508083825260208201905082856020860282011115610fbc57610fbb611b72565b5b60005b85811015610fec5781610fd2888261116f565b845260208401935060208301925050600181019050610fbf565b5050509392505050565b60006110096110048461167a565b611629565b90508281526020810184848401111561102557611024611b77565b5b611030848285611978565b509392505050565b600061104b611046846116ab565b611629565b90508281526020810184848401111561106757611066611b77565b5b611072848285611978565b509392505050565b60008135905061108981611bbb565b92915050565b600082601f8301126110a4576110a3611b6d565b5b81356110b4848260208601610f86565b91505092915050565b60008083601f8401126110d3576110d2611b6d565b5b8235905067ffffffffffffffff8111156110f0576110ef611b68565b5b60208301915083600182028301111561110c5761110b611b72565b5b9250929050565b600082601f83011261112857611127611b6d565b5b8135611138848260208601610ff6565b91505092915050565b600082601f83011261115657611155611b6d565b5b8135611166848260208601611038565b91505092915050565b60008135905061117e81611bd2565b92915050565b60008151905061119381611bd2565b92915050565b6000602082840312156111af576111ae611b81565b5b60006111bd8482850161107a565b91505092915050565b600080602083850312156111dd576111dc611b81565b5b600083013567ffffffffffffffff8111156111fb576111fa611b7c565b5b611207858286016110bd565b92509250509250929050565b60006020828403121561122957611228611b81565b5b600082013567ffffffffffffffff81111561124757611246611b7c565b5b61125384828501611113565b91505092915050565b60006020828403121561127257611271611b81565b5b600082013567ffffffffffffffff8111156112905761128f611b7c565b5b61129c84828501611141565b91505092915050565b6000602082840312156112bb576112ba611b81565b5b60006112c98482850161116f565b91505092915050565b6000602082840312156112e8576112e7611b81565b5b60006112f684828501611184565b91505092915050565b6000806040838503121561131657611315611b81565b5b60006113248582860161116f565b925050602083013567ffffffffffffffff81111561134557611344611b7c565b5b6113518582860161108f565b9150509250929050565b611364816118cf565b82525050565b611373816118e1565b82525050565b611382816118ed565b82525050565b6000611393826116dc565b61139d81856116f2565b93506113ad818560208601611987565b6113b681611b86565b840191505092915050565b6113ca81611966565b82525050565b60006113db826116e7565b6113e5818561170e565b93506113f5818560208601611987565b6113fe81611b86565b840191505092915050565b6000611414826116e7565b61141e818561171f565b935061142e818560208601611987565b80840191505092915050565b6000611447600083611703565b915061145282611ba4565b600082019050919050565b6114668161190a565b82525050565b61147581611938565b82525050565b61148481611942565b82525050565b61149381611952565b82525050565b60006114a58284611409565b915081905092915050565b60006114bb8261143a565b9150819050919050565b60006020820190506114da600083018461135b565b92915050565b60006040820190506114f5600083018561135b565b611502602083018461135b565b9392505050565b600060408201905061151e600083018561136a565b81810360208301526115308184611388565b90509392505050565b600060a08201905061154e6000830188611379565b61155b602083018761148a565b611568604083018661145d565b611575606083018561147b565b611582608083018461147b565b9695505050505050565b60006020820190506115a160008301846113c1565b92915050565b600060408201905081810360008301526115c181856113d0565b90506115d0602083018461146c565b9392505050565b60006020820190506115ec600083018461146c565b92915050565b6000606082019050611607600083018661146c565b611614602083018561146c565b611621604083018461146c565b949350505050565b6000611633611644565b905061163f82826119ec565b919050565b6000604051905090565b600067ffffffffffffffff82111561166957611668611b39565b5b602082029050602081019050919050565b600067ffffffffffffffff82111561169557611694611b39565b5b61169e82611b86565b9050602081019050919050565b600067ffffffffffffffff8211156116c6576116c5611b39565b5b6116cf82611b86565b9050602081019050919050565b600081519050919050565b600081519050919050565b600082825260208201905092915050565b600081905092915050565b600082825260208201905092915050565b600081905092915050565b6000808291508390505b6001851115611774578086048111156117505761174f611a4e565b5b600185161561175f5780820291505b808102905061176d85611b97565b9450611734565b94509492505050565b600061178882611938565b915061179383611938565b92506117c07fffffffffffffffffffffffffffffffffffffffffffffffffffffffffffffffff84846117c8565b905092915050565b6000826117d85760019050611894565b816117e65760009050611894565b81600181146117fc576002811461180657611835565b6001915050611894565b60ff84111561181857611817611a4e565b5b8360020a91508482111561182f5761182e611a4e565b5b50611894565b5060208310610133831016604e8410600b841016171561186a5782820a90508381111561186557611864611a4e565b5b611894565b611877848484600161172a565b9250905081840481111561188e5761188d611a4e565b5b81810290505b9392505050565b60006118a682611938565b91506118b183611938565b9250828210156118c4576118c3611a4e565b5b828203905092915050565b60006118da82611918565b9050919050565b60008115159050919050565b6000819050919050565b600081905061190582611ba7565b919050565b600061ffff82169050919050565b600073ffffffffffffffffffffffffffffffffffffffff82169050919050565b6000819050919050565b600063ffffffff82169050919050565b600067ffffffffffffffff82169050919050565b6000611971826118f7565b9050919050565b82818337600083830152505050565b60005b838110156119a557808201518184015260208101905061198a565b838111156119b4576000848401525b50505050565b600060028204905060018216806119d257607f821691505b602082108114156119e6576119e5611adb565b5b50919050565b6119f582611b86565b810181811067ffffffffffffffff82111715611a1457611a13611b39565b5b80604052505050565b6000611a2882611938565b9150611a3383611938565b925082611a4357611a42611a7d565b5b828206905092915050565b7f4e487b7100000000000000000000000000000000000000000000000000000000600052601160045260246000fd5b7f4e487b7100000000000000000000000000000000000000000000000000000000600052601260045260246000fd5b7f4e487b7100000000000000000000000000000000000000000000000000000000600052602160045260246000fd5b7f4e487b7100000000000000000000000000000000000000000000000000000000600052602260045260246000fd5b7f4e487b7100000000000000000000000000000000000000000000000000000000600052603260045260246000fd5b7f4e487b7100000000000000000000000000000000000000000000000000000000600052604160045260246000fd5b600080fd5b600080fd5b600080fd5b600080fd5b600080fd5b600080fd5b6000601f19601f8301169050919050565b60008160011c9050919050565b50565b60028110611bb857611bb7611aac565b5b50565b611bc4816118cf565b8114611bcf57600080fd5b50565b611bdb81611938565b8114611be657600080fd5b5056fea2646970667358221220a9622a86bd39bb5f2470b1de27d0a66badeaaabdb60a3e1d80359be304cd414664736f6c63430008070033",
  "linkReferences": {},
  "deployedLinkReferences": {}
}