{"contracts/test/BackgroundFactory.sol":{"BackgroundFactory":{"abi":[{"inputs":[{"internalType":"address","name":"vrfCoordinatorV2","type":"address"},{"internalType":"bytes32","name":"gasLane","type":"bytes32"},{"internalType":"uint64","name":"subscriptionId","type":"uint64"},{"internalType":"uint32","name":"callbackGasLimit","type":"uint32"},{"internalType":"uint256","name":"interval","type":"uint256"}],"stateMutability":"nonpayable","type":"constructor"},{"inputs":[],"name":"BackgroundFactory__NotOpen","type":"error"},{"inputs":[{"internalType":"uint256","name":"backgroundFactoryState","type":"uint256"}],"name":"BackgroundFactory__UpkeepNotNeeded","type":"error"},{"inputs":[{"internalType":"address","name":"have","type":"address"},{"internalType":"address","name":"want","type":"address"}],"name":"OnlyCoordinatorCanFulfill","type":"error"},{"anonymous":false,"inputs":[{"indexed":true,"internalType":"uint256","name":"dnapicked","type":"uint256"}],"name":"DnaPicked","type":"event"},{"anonymous":false,"inputs":[{"indexed":false,"internalType":"uint256","name":"backgroundId","type":"uint256"},{"indexed":false,"internalType":"string","name":"name","type":"string"},{"indexed":false,"internalType":"uint256","name":"dna","type":"uint256"}],"name":"NewBackground","type":"event"},{"anonymous":false,"inputs":[{"indexed":true,"internalType":"uint256","name":"requestId","type":"uint256"}],"name":"RequestedRandomDna","type":"event"},{"inputs":[{"internalType":"bytes","name":"","type":"bytes"}],"name":"checkUpkeep","outputs":[{"internalType":"bool","name":"upkeepNeeded","type":"bool"},{"internalType":"bytes","name":"","type":"bytes"}],"stateMutability":"nonpayable","type":"function"},{"inputs":[{"internalType":"string","name":"_name","type":"string"}],"name":"createRandomBackground","outputs":[],"stateMutability":"nonpayable","type":"function"},{"inputs":[],"name":"getBackgroundFactoryState","outputs":[{"internalType":"enum BackgroundFactory.BackgroundFactoryState","name":"","type":"uint8"}],"stateMutability":"view","type":"function"},{"inputs":[],"name":"getLatestTimeStamp","outputs":[{"internalType":"uint256","name":"","type":"uint256"}],"stateMutability":"view","type":"function"},{"inputs":[],"name":"getNumberOfBackgrounds","outputs":[{"internalType":"uint256","name":"","type":"uint256"}],"stateMutability":"view","type":"function"},{"inputs":[],"name":"getNumwords","outputs":[{"internalType":"uint256","name":"","type":"uint256"}],"stateMutability":"pure","type":"function"},{"inputs":[],"name":"getRecentRandomBackground","outputs":[{"internalType":"uint256","name":"","type":"uint256"}],"stateMutability":"view","type":"function"},{"inputs":[],"name":"getRequestConfirmations","outputs":[{"internalType":"uint256","name":"","type":"uint256"}],"stateMutability":"pure","type":"function"},{"inputs":[{"internalType":"bytes","name":"","type":"bytes"}],"name":"performUpkeep","outputs":[],"stateMutability":"nonpayable","type":"function"},{"inputs":[{"internalType":"uint256","name":"requestId","type":"uint256"},{"internalType":"uint256[]","name":"randomWords","type":"uint256[]"}],"name":"rawFulfillRandomWords","outputs":[],"stateMutability":"nonpayable","type":"function"},{"inputs":[{"internalType":"uint256","name":"","type":"uint256"}],"name":"s_backgrounds","outputs":[{"internalType":"string","name":"name","type":"string"},{"internalType":"uint256","name":"dna","type":"uint256"}],"stateMutability":"view","type":"function"}],"devdoc":{"kind":"dev","methods":{"checkUpkeep(bytes)":{"details":"This is the function that the Chainlink keeper nodes call they look for the `upkeepNeeded` to return true. The following should be true in order to return true: 1. Our time interval should have passed 2. Our subscription is funded with LINK 3. The Factory should be in an \"open\" state."}},"version":1},"evm":{"bytecode":{"linkReferences":{},"object":"6101406040523480156200001257600080fd5b50604051620018ca380380620018ca8339818101604052810190620000389190620001a3565b848073ffffffffffffffffffffffffffffffffffffffff1660808173ffffffffffffffffffffffffffffffffffffffff1660601b81525050508473ffffffffffffffffffffffffffffffffffffffff1660a08173ffffffffffffffffffffffffffffffffffffffff1660601b815250508360c081815250508267ffffffffffffffff1660e08167ffffffffffffffff1660c01b815250508163ffffffff166101008163ffffffff1660e01b815250506000600260006101000a81548160ff0219169083600181111562000110576200010f62000297565b5b02179055504260038190555080610120818152505050505050506200034d565b6000815190506200014181620002cb565b92915050565b6000815190506200015881620002e5565b92915050565b6000815190506200016f81620002ff565b92915050565b600081519050620001868162000319565b92915050565b6000815190506200019d8162000333565b92915050565b600080600080600060a08688031215620001c257620001c1620002c6565b5b6000620001d28882890162000130565b9550506020620001e58882890162000147565b9450506040620001f8888289016200018c565b93505060606200020b8882890162000175565b92505060806200021e888289016200015e565b9150509295509295909350565b6000620002388262000249565b9050919050565b6000819050919050565b600073ffffffffffffffffffffffffffffffffffffffff82169050919050565b6000819050919050565b600063ffffffff82169050919050565b600067ffffffffffffffff82169050919050565b7f4e487b7100000000000000000000000000000000000000000000000000000000600052602160045260246000fd5b600080fd5b620002d6816200022b565b8114620002e257600080fd5b50565b620002f0816200023f565b8114620002fc57600080fd5b50565b6200030a8162000269565b81146200031657600080fd5b50565b620003248162000273565b81146200033057600080fd5b50565b6200033e8162000283565b81146200034a57600080fd5b50565b60805160601c60a05160601c60c05160e05160c01c6101005160e01c6101205161151a620003b06000396000610621015260006104d7015260006104b401526000610493015260006104570152600081816102d6015261032a015261151a6000f3fe608060405234801561001057600080fd5b50600436106100a95760003560e01c806351c66b3f1161007157806351c66b3f1461015357806359f1b23c146101715780635f1b0fd81461018f57806369657573146101ad5780636e04ff0d146101cb578063c4df7ad5146101fc576100a9565b80630f172b28146100ae5780631fe543e3146100df578063320229eb146100fb57806336240218146101195780634585e33b14610137575b600080fd5b6100c860048036038101906100c39190610c64565b610218565b6040516100d6929190610ecb565b60405180910390f35b6100f960048036038101906100f49190610cbe565b6102d4565b005b610103610394565b6040516101109190610efb565b60405180910390f35b61012161039e565b60405161012e9190610efb565b60405180910390f35b610151600480360381019061014c9190610b85565b6103a8565b005b61015b61059f565b6040516101689190610eb0565b60405180910390f35b6101796105b6565b6040516101869190610efb565b60405180910390f35b6101976105c5565b6040516101a49190610efb565b60405180910390f35b6101b56105d2565b6040516101c29190610efb565b60405180910390f35b6101e560048036038101906101e09190610bd2565b6105de565b6040516101f3929190610e2d565b60405180910390f35b61021660048036038101906102119190610c1b565b610664565b005b6000818154811061022857600080fd5b906000526020600020906002020160009150905080600001805461024b906112cf565b80601f0160208091040260200160405190810160405280929190818152602001828054610277906112cf565b80156102c45780601f10610299576101008083540402835291602001916102c4565b820191906000526020600020905b8154815290600101906020018083116102a757829003601f168201915b5050505050908060010154905082565b7f000000000000000000000000000000000000000000000000000000000000000073ffffffffffffffffffffffffffffffffffffffff163373ffffffffffffffffffffffffffffffffffffffff161461038657337f00000000000000000000000000000000000000000000000000000000000000006040517f1cf993f400000000000000000000000000000000000000000000000000000000815260040161037d929190610e04565b60405180910390fd5b61039082826106e0565b5050565b6000600354905090565b6000600154905090565b60006103c2604051806020016040528060008152506105de565b5090508061042857600260009054906101000a900460ff1660018111156103ec576103eb6113c1565b5b6040517f436ba0a300000000000000000000000000000000000000000000000000000000815260040161041f9190610efb565b60405180910390fd5b6001600260006101000a81548160ff0219169083600181111561044e5761044d6113c1565b5b021790555060007f000000000000000000000000000000000000000000000000000000000000000073ffffffffffffffffffffffffffffffffffffffff16635d3b1d307f00000000000000000000000000000000000000000000000000000000000000007f000000000000000000000000000000000000000000000000000000000000000060037f000000000000000000000000000000000000000000000000000000000000000060016040518663ffffffff1660e01b8152600401610518959493929190610e5d565b602060405180830381600087803b15801561053257600080fd5b505af1158015610546573d6000803e3d6000fd5b505050506040513d601f19601f8201168201806040525081019061056a9190610c91565b9050807f6957bae45d413eb91a986483fd556679f4d7b69c127f0f204a66df9f4533539860405160405180910390a250505050565b6000600260009054906101000a900460ff16905090565b6000600163ffffffff16905090565b6000600361ffff16905090565b60008080549050905090565b600060606000600260009054906101000a900460ff166001811115610606576106056113c1565b5b6000600181111561061a576106196113c1565b5b14905060007f00000000000000000000000000000000000000000000000000000000000000006003544261064e91906111b0565b11905081801561065b5750805b93505050915091565b60006001811115610678576106776113c1565b5b600260009054906101000a900460ff16600181111561069a576106996113c1565b5b146106d1576040517f2eb8a13900000000000000000000000000000000000000000000000000000000815260040160405180910390fd5b6106dd81600154610792565b50565b60006010600a6106f09190611092565b826000815181106107045761070361141f565b5b60200260200101516107169190611332565b9050806001819055506000600260006101000a81548160ff02191690836001811115610745576107446113c1565b5b02179055506000806107579190610851565b426003819055506001547fa1ab8376f1638500645ddbbc03cf5feab3a2e45ad3a6adcc0216dee94201af8460405160405180910390a2505050565b6000604051806040016040528084815260200183815250908060018154018082558091505060019003906000526020600020906002020160009091909190915060008201518160000190805190602001906107ee929190610875565b506020820151816001015550506000600160008054905061080f91906111b0565b90507fbf3206d101e1b4d760ebe40e247bda1b71c5af30efe69bf9235831706faaef7c81848460405161084493929190610f16565b60405180910390a1505050565b508054600082556002029060005260206000209081019061087291906108fb565b50565b828054610881906112cf565b90600052602060002090601f0160209004810192826108a357600085556108ea565b82601f106108bc57805160ff19168380011785556108ea565b828001600101855582156108ea579182015b828111156108e95782518255916020019190600101906108ce565b5b5090506108f7919061092a565b5090565b5b8082111561092657600080820160006109159190610947565b6001820160009055506002016108fc565b5090565b5b8082111561094357600081600090555060010161092b565b5090565b508054610953906112cf565b6000825580601f106109655750610984565b601f016020900490600052602060002090810190610983919061092a565b5b50565b600061099a61099584610f79565b610f54565b905080838252602082019050828560208602820111156109bd576109bc611487565b5b60005b858110156109ed57816109d38882610b5b565b8452602084019350602083019250506001810190506109c0565b5050509392505050565b6000610a0a610a0584610fa5565b610f54565b905082815260208101848484011115610a2657610a2561148c565b5b610a3184828561128d565b509392505050565b6000610a4c610a4784610fd6565b610f54565b905082815260208101848484011115610a6857610a6761148c565b5b610a7384828561128d565b509392505050565b600082601f830112610a9057610a8f611482565b5b8135610aa0848260208601610987565b91505092915050565b60008083601f840112610abf57610abe611482565b5b8235905067ffffffffffffffff811115610adc57610adb61147d565b5b602083019150836001820283011115610af857610af7611487565b5b9250929050565b600082601f830112610b1457610b13611482565b5b8135610b248482602086016109f7565b91505092915050565b600082601f830112610b4257610b41611482565b5b8135610b52848260208601610a39565b91505092915050565b600081359050610b6a816114cd565b92915050565b600081519050610b7f816114cd565b92915050565b60008060208385031215610b9c57610b9b611496565b5b600083013567ffffffffffffffff811115610bba57610bb9611491565b5b610bc685828601610aa9565b92509250509250929050565b600060208284031215610be857610be7611496565b5b600082013567ffffffffffffffff811115610c0657610c05611491565b5b610c1284828501610aff565b91505092915050565b600060208284031215610c3157610c30611496565b5b600082013567ffffffffffffffff811115610c4f57610c4e611491565b5b610c5b84828501610b2d565b91505092915050565b600060208284031215610c7a57610c79611496565b5b6000610c8884828501610b5b565b91505092915050565b600060208284031215610ca757610ca6611496565b5b6000610cb584828501610b70565b91505092915050565b60008060408385031215610cd557610cd4611496565b5b6000610ce385828601610b5b565b925050602083013567ffffffffffffffff811115610d0457610d03611491565b5b610d1085828601610a7b565b9150509250929050565b610d23816111e4565b82525050565b610d32816111f6565b82525050565b610d4181611202565b82525050565b6000610d5282611007565b610d5c818561101d565b9350610d6c81856020860161129c565b610d758161149b565b840191505092915050565b610d898161127b565b82525050565b6000610d9a82611012565b610da4818561102e565b9350610db481856020860161129c565b610dbd8161149b565b840191505092915050565b610dd18161121f565b82525050565b610de08161124d565b82525050565b610def81611257565b82525050565b610dfe81611267565b82525050565b6000604082019050610e196000830185610d1a565b610e266020830184610d1a565b9392505050565b6000604082019050610e426000830185610d29565b8181036020830152610e548184610d47565b90509392505050565b600060a082019050610e726000830188610d38565b610e7f6020830187610df5565b610e8c6040830186610dc8565b610e996060830185610de6565b610ea66080830184610de6565b9695505050505050565b6000602082019050610ec56000830184610d80565b92915050565b60006040820190508181036000830152610ee58185610d8f565b9050610ef46020830184610dd7565b9392505050565b6000602082019050610f106000830184610dd7565b92915050565b6000606082019050610f2b6000830186610dd7565b8181036020830152610f3d8185610d8f565b9050610f4c6040830184610dd7565b949350505050565b6000610f5e610f6f565b9050610f6a8282611301565b919050565b6000604051905090565b600067ffffffffffffffff821115610f9457610f9361144e565b5b602082029050602081019050919050565b600067ffffffffffffffff821115610fc057610fbf61144e565b5b610fc98261149b565b9050602081019050919050565b600067ffffffffffffffff821115610ff157610ff061144e565b5b610ffa8261149b565b9050602081019050919050565b600081519050919050565b600081519050919050565b600082825260208201905092915050565b600082825260208201905092915050565b6000808291508390505b60018511156110895780860481111561106557611064611363565b5b60018516156110745780820291505b8081029050611082856114ac565b9450611049565b94509492505050565b600061109d8261124d565b91506110a88361124d565b92506110d57fffffffffffffffffffffffffffffffffffffffffffffffffffffffffffffffff84846110dd565b905092915050565b6000826110ed57600190506111a9565b816110fb57600090506111a9565b8160018114611111576002811461111b5761114a565b60019150506111a9565b60ff84111561112d5761112c611363565b5b8360020a91508482111561114457611143611363565b5b506111a9565b5060208310610133831016604e8410600b841016171561117f5782820a90508381111561117a57611179611363565b5b6111a9565b61118c848484600161103f565b925090508184048111156111a3576111a2611363565b5b81810290505b9392505050565b60006111bb8261124d565b91506111c68361124d565b9250828210156111d9576111d8611363565b5b828203905092915050565b60006111ef8261122d565b9050919050565b60008115159050919050565b6000819050919050565b600081905061121a826114b9565b919050565b600061ffff82169050919050565b600073ffffffffffffffffffffffffffffffffffffffff82169050919050565b6000819050919050565b600063ffffffff82169050919050565b600067ffffffffffffffff82169050919050565b60006112868261120c565b9050919050565b82818337600083830152505050565b60005b838110156112ba57808201518184015260208101905061129f565b838111156112c9576000848401525b50505050565b600060028204905060018216806112e757607f821691505b602082108114156112fb576112fa6113f0565b5b50919050565b61130a8261149b565b810181811067ffffffffffffffff821117156113295761132861144e565b5b80604052505050565b600061133d8261124d565b91506113488361124d565b92508261135857611357611392565b5b828206905092915050565b7f4e487b7100000000000000000000000000000000000000000000000000000000600052601160045260246000fd5b7f4e487b7100000000000000000000000000000000000000000000000000000000600052601260045260246000fd5b7f4e487b7100000000000000000000000000000000000000000000000000000000600052602160045260246000fd5b7f4e487b7100000000000000000000000000000000000000000000000000000000600052602260045260246000fd5b7f4e487b7100000000000000000000000000000000000000000000000000000000600052603260045260246000fd5b7f4e487b7100000000000000000000000000000000000000000000000000000000600052604160045260246000fd5b600080fd5b600080fd5b600080fd5b600080fd5b600080fd5b600080fd5b6000601f19601f8301169050919050565b60008160011c9050919050565b600281106114ca576114c96113c1565b5b50565b6114d68161124d565b81146114e157600080fd5b5056fea2646970667358221220f2fee7a0112cc13b11d3bb8bcaa7df18eec35c6104e15d56c681b3a1cba578fd64736f6c63430008070033","opcodes":"PUSH2 0x140 PUSH1 0x40 MSTORE CALLVALUE DUP1 ISZERO PUSH3 0x12 JUMPI PUSH1 0x0 DUP1 REVERT JUMPDEST POP PUSH1 0x40 MLOAD PUSH3 0x18CA CODESIZE SUB DUP1 PUSH3 0x18CA DUP4 CODECOPY DUP2 DUP2 ADD PUSH1 0x40 MSTORE DUP2 ADD SWAP1 PUSH3 0x38 SWAP2 SWAP1 PUSH3 0x1A3 JUMP JUMPDEST DUP5 DUP1 PUSH20 0xFFFFFFFFFFFFFFFFFFFFFFFFFFFFFFFFFFFFFFFF AND PUSH1 0x80 DUP2 PUSH20 0xFFFFFFFFFFFFFFFFFFFFFFFFFFFFFFFFFFFFFFFF AND PUSH1 0x60 SHL DUP2 MSTORE POP POP POP DUP5 PUSH20 0xFFFFFFFFFFFFFFFFFFFFFFFFFFFFFFFFFFFFFFFF AND PUSH1 0xA0 DUP2 PUSH20 0xFFFFFFFFFFFFFFFFFFFFFFFFFFFFFFFFFFFFFFFF AND PUSH1 0x60 SHL DUP2 MSTORE POP POP DUP4 PUSH1 0xC0 DUP2 DUP2 MSTORE POP POP DUP3 PUSH8 0xFFFFFFFFFFFFFFFF AND PUSH1 0xE0 DUP2 PUSH8 0xFFFFFFFFFFFFFFFF AND PUSH1 0xC0 SHL DUP2 MSTORE POP POP DUP2 PUSH4 0xFFFFFFFF AND PUSH2 0x100 DUP2 PUSH4 0xFFFFFFFF AND PUSH1 0xE0 SHL DUP2 MSTORE POP POP PUSH1 0x0 PUSH1 0x2 PUSH1 0x0 PUSH2 0x100 EXP DUP2 SLOAD DUP2 PUSH1 0xFF MUL NOT AND SWAP1 DUP4 PUSH1 0x1 DUP2 GT ISZERO PUSH3 0x110 JUMPI PUSH3 0x10F PUSH3 0x297 JUMP JUMPDEST JUMPDEST MUL OR SWAP1 SSTORE POP TIMESTAMP PUSH1 0x3 DUP2 SWAP1 SSTORE POP DUP1 PUSH2 0x120 DUP2 DUP2 MSTORE POP POP POP POP POP POP POP PUSH3 0x34D JUMP JUMPDEST PUSH1 0x0 DUP2 MLOAD SWAP1 POP PUSH3 0x141 DUP2 PUSH3 0x2CB JUMP JUMPDEST SWAP3 SWAP2 POP POP JUMP JUMPDEST PUSH1 0x0 DUP2 MLOAD SWAP1 POP PUSH3 0x158 DUP2 PUSH3 0x2E5 JUMP JUMPDEST SWAP3 SWAP2 POP POP JUMP JUMPDEST PUSH1 0x0 DUP2 MLOAD SWAP1 POP PUSH3 0x16F DUP2 PUSH3 0x2FF JUMP JUMPDEST SWAP3 SWAP2 POP POP JUMP JUMPDEST PUSH1 0x0 DUP2 MLOAD SWAP1 POP PUSH3 0x186 DUP2 PUSH3 0x319 JUMP JUMPDEST SWAP3 SWAP2 POP POP JUMP JUMPDEST PUSH1 0x0 DUP2 MLOAD SWAP1 POP PUSH3 0x19D DUP2 PUSH3 0x333 JUMP JUMPDEST SWAP3 SWAP2 POP POP JUMP JUMPDEST PUSH1 0x0 DUP1 PUSH1 0x0 DUP1 PUSH1 0x0 PUSH1 0xA0 DUP7 DUP9 SUB SLT ISZERO PUSH3 0x1C2 JUMPI PUSH3 0x1C1 PUSH3 0x2C6 JUMP JUMPDEST JUMPDEST PUSH1 0x0 PUSH3 0x1D2 DUP9 DUP3 DUP10 ADD PUSH3 0x130 JUMP JUMPDEST SWAP6 POP POP PUSH1 0x20 PUSH3 0x1E5 DUP9 DUP3 DUP10 ADD PUSH3 0x147 JUMP JUMPDEST SWAP5 POP POP PUSH1 0x40 PUSH3 0x1F8 DUP9 DUP3 DUP10 ADD PUSH3 0x18C JUMP JUMPDEST SWAP4 POP POP PUSH1 0x60 PUSH3 0x20B DUP9 DUP3 DUP10 ADD PUSH3 0x175 JUMP JUMPDEST SWAP3 POP POP PUSH1 0x80 PUSH3 0x21E DUP9 DUP3 DUP10 ADD PUSH3 0x15E JUMP JUMPDEST SWAP2 POP POP SWAP3 SWAP6 POP SWAP3 SWAP6 SWAP1 SWAP4 POP JUMP JUMPDEST PUSH1 0x0 PUSH3 0x238 DUP3 PUSH3 0x249 JUMP JUMPDEST SWAP1 POP SWAP2 SWAP1 POP JUMP JUMPDEST PUSH1 0x0 DUP2 SWAP1 POP SWAP2 SWAP1 POP JUMP JUMPDEST PUSH1 0x0 PUSH20 0xFFFFFFFFFFFFFFFFFFFFFFFFFFFFFFFFFFFFFFFF DUP3 AND SWAP1 POP SWAP2 SWAP1 POP JUMP JUMPDEST PUSH1 0x0 DUP2 SWAP1 POP SWAP2 SWAP1 POP JUMP JUMPDEST PUSH1 0x0 PUSH4 0xFFFFFFFF DUP3 AND SWAP1 POP SWAP2 SWAP1 POP JUMP JUMPDEST PUSH1 0x0 PUSH8 0xFFFFFFFFFFFFFFFF DUP3 AND SWAP1 POP SWAP2 SWAP1 POP JUMP JUMPDEST PUSH32 0x4E487B7100000000000000000000000000000000000000000000000000000000 PUSH1 0x0 MSTORE PUSH1 0x21 PUSH1 0x4 MSTORE PUSH1 0x24 PUSH1 0x0 REVERT JUMPDEST PUSH1 0x0 DUP1 REVERT JUMPDEST PUSH3 0x2D6 DUP2 PUSH3 0x22B JUMP JUMPDEST DUP2 EQ PUSH3 0x2E2 JUMPI PUSH1 0x0 DUP1 REVERT JUMPDEST POP JUMP JUMPDEST PUSH3 0x2F0 DUP2 PUSH3 0x23F JUMP JUMPDEST DUP2 EQ PUSH3 0x2FC JUMPI PUSH1 0x0 DUP1 REVERT JUMPDEST POP JUMP JUMPDEST PUSH3 0x30A DUP2 PUSH3 0x269 JUMP JUMPDEST DUP2 EQ PUSH3 0x316 JUMPI PUSH1 0x0 DUP1 REVERT JUMPDEST POP JUMP JUMPDEST PUSH3 0x324 DUP2 PUSH3 0x273 JUMP JUMPDEST DUP2 EQ PUSH3 0x330 JUMPI PUSH1 0x0 DUP1 REVERT JUMPDEST POP JUMP JUMPDEST PUSH3 0x33E DUP2 PUSH3 0x283 JUMP JUMPDEST DUP2 EQ PUSH3 0x34A JUMPI PUSH1 0x0 DUP1 REVERT JUMPDEST POP JUMP JUMPDEST PUSH1 0x80 MLOAD PUSH1 0x60 SHR PUSH1 0xA0 MLOAD PUSH1 0x60 SHR PUSH1 0xC0 MLOAD PUSH1 0xE0 MLOAD PUSH1 0xC0 SHR PUSH2 0x100 MLOAD PUSH1 0xE0 SHR PUSH2 0x120 MLOAD PUSH2 0x151A PUSH3 0x3B0 PUSH1 0x0 CODECOPY PUSH1 0x0 PUSH2 0x621 ADD MSTORE PUSH1 0x0 PUSH2 0x4D7 ADD MSTORE PUSH1 0x0 PUSH2 0x4B4 ADD MSTORE PUSH1 0x0 PUSH2 0x493 ADD MSTORE PUSH1 0x0 PUSH2 0x457 ADD MSTORE PUSH1 0x0 DUP2 DUP2 PUSH2 0x2D6 ADD MSTORE PUSH2 0x32A ADD MSTORE PUSH2 0x151A PUSH1 0x0 RETURN INVALID PUSH1 0x80 PUSH1 0x40 MSTORE CALLVALUE DUP1 ISZERO PUSH2 0x10 JUMPI PUSH1 0x0 DUP1 REVERT JUMPDEST POP PUSH1 0x4 CALLDATASIZE LT PUSH2 0xA9 JUMPI PUSH1 0x0 CALLDATALOAD PUSH1 0xE0 SHR DUP1 PUSH4 0x51C66B3F GT PUSH2 0x71 JUMPI DUP1 PUSH4 0x51C66B3F EQ PUSH2 0x153 JUMPI DUP1 PUSH4 0x59F1B23C EQ PUSH2 0x171 JUMPI DUP1 PUSH4 0x5F1B0FD8 EQ PUSH2 0x18F JUMPI DUP1 PUSH4 0x69657573 EQ PUSH2 0x1AD JUMPI DUP1 PUSH4 0x6E04FF0D EQ PUSH2 0x1CB JUMPI DUP1 PUSH4 0xC4DF7AD5 EQ PUSH2 0x1FC JUMPI PUSH2 0xA9 JUMP JUMPDEST DUP1 PUSH4 0xF172B28 EQ PUSH2 0xAE JUMPI DUP1 PUSH4 0x1FE543E3 EQ PUSH2 0xDF JUMPI DUP1 PUSH4 0x320229EB EQ PUSH2 0xFB JUMPI DUP1 PUSH4 0x36240218 EQ PUSH2 0x119 JUMPI DUP1 PUSH4 0x4585E33B EQ PUSH2 0x137 JUMPI JUMPDEST PUSH1 0x0 DUP1 REVERT JUMPDEST PUSH2 0xC8 PUSH1 0x4 DUP1 CALLDATASIZE SUB DUP2 ADD SWAP1 PUSH2 0xC3 SWAP2 SWAP1 PUSH2 0xC64 JUMP JUMPDEST PUSH2 0x218 JUMP JUMPDEST PUSH1 0x40 MLOAD PUSH2 0xD6 SWAP3 SWAP2 SWAP1 PUSH2 0xECB JUMP JUMPDEST PUSH1 0x40 MLOAD DUP1 SWAP2 SUB SWAP1 RETURN JUMPDEST PUSH2 0xF9 PUSH1 0x4 DUP1 CALLDATASIZE SUB DUP2 ADD SWAP1 PUSH2 0xF4 SWAP2 SWAP1 PUSH2 0xCBE JUMP JUMPDEST PUSH2 0x2D4 JUMP JUMPDEST STOP JUMPDEST PUSH2 0x103 PUSH2 0x394 JUMP JUMPDEST PUSH1 0x40 MLOAD PUSH2 0x110 SWAP2 SWAP1 PUSH2 0xEFB JUMP JUMPDEST PUSH1 0x40 MLOAD DUP1 SWAP2 SUB SWAP1 RETURN JUMPDEST PUSH2 0x121 PUSH2 0x39E JUMP JUMPDEST PUSH1 0x40 MLOAD PUSH2 0x12E SWAP2 SWAP1 PUSH2 0xEFB JUMP JUMPDEST PUSH1 0x40 MLOAD DUP1 SWAP2 SUB SWAP1 RETURN JUMPDEST PUSH2 0x151 PUSH1 0x4 DUP1 CALLDATASIZE SUB DUP2 ADD SWAP1 PUSH2 0x14C SWAP2 SWAP1 PUSH2 0xB85 JUMP JUMPDEST PUSH2 0x3A8 JUMP JUMPDEST STOP JUMPDEST PUSH2 0x15B PUSH2 0x59F JUMP JUMPDEST PUSH1 0x40 MLOAD PUSH2 0x168 SWAP2 SWAP1 PUSH2 0xEB0 JUMP JUMPDEST PUSH1 0x40 MLOAD DUP1 SWAP2 SUB SWAP1 RETURN JUMPDEST PUSH2 0x179 PUSH2 0x5B6 JUMP JUMPDEST PUSH1 0x40 MLOAD PUSH2 0x186 SWAP2 SWAP1 PUSH2 0xEFB JUMP JUMPDEST PUSH1 0x40 MLOAD DUP1 SWAP2 SUB SWAP1 RETURN JUMPDEST PUSH2 0x197 PUSH2 0x5C5 JUMP JUMPDEST PUSH1 0x40 MLOAD PUSH2 0x1A4 SWAP2 SWAP1 PUSH2 0xEFB JUMP JUMPDEST PUSH1 0x40 MLOAD DUP1 SWAP2 SUB SWAP1 RETURN JUMPDEST PUSH2 0x1B5 PUSH2 0x5D2 JUMP JUMPDEST PUSH1 0x40 MLOAD PUSH2 0x1C2 SWAP2 SWAP1 PUSH2 0xEFB JUMP JUMPDEST PUSH1 0x40 MLOAD DUP1 SWAP2 SUB SWAP1 RETURN JUMPDEST PUSH2 0x1E5 PUSH1 0x4 DUP1 CALLDATASIZE SUB DUP2 ADD SWAP1 PUSH2 0x1E0 SWAP2 SWAP1 PUSH2 0xBD2 JUMP JUMPDEST PUSH2 0x5DE JUMP JUMPDEST PUSH1 0x40 MLOAD PUSH2 0x1F3 SWAP3 SWAP2 SWAP1 PUSH2 0xE2D JUMP JUMPDEST PUSH1 0x40 MLOAD DUP1 SWAP2 SUB SWAP1 RETURN JUMPDEST PUSH2 0x216 PUSH1 0x4 DUP1 CALLDATASIZE SUB DUP2 ADD SWAP1 PUSH2 0x211 SWAP2 SWAP1 PUSH2 0xC1B JUMP JUMPDEST PUSH2 0x664 JUMP JUMPDEST STOP JUMPDEST PUSH1 0x0 DUP2 DUP2 SLOAD DUP2 LT PUSH2 0x228 JUMPI PUSH1 0x0 DUP1 REVERT JUMPDEST SWAP1 PUSH1 0x0 MSTORE PUSH1 0x20 PUSH1 0x0 KECCAK256 SWAP1 PUSH1 0x2 MUL ADD PUSH1 0x0 SWAP2 POP SWAP1 POP DUP1 PUSH1 0x0 ADD DUP1 SLOAD PUSH2 0x24B SWAP1 PUSH2 0x12CF JUMP JUMPDEST DUP1 PUSH1 0x1F ADD PUSH1 0x20 DUP1 SWAP2 DIV MUL PUSH1 0x20 ADD PUSH1 0x40 MLOAD SWAP1 DUP2 ADD PUSH1 0x40 MSTORE DUP1 SWAP3 SWAP2 SWAP1 DUP2 DUP2 MSTORE PUSH1 0x20 ADD DUP3 DUP1 SLOAD PUSH2 0x277 SWAP1 PUSH2 0x12CF JUMP JUMPDEST DUP1 ISZERO PUSH2 0x2C4 JUMPI DUP1 PUSH1 0x1F LT PUSH2 0x299 JUMPI PUSH2 0x100 DUP1 DUP4 SLOAD DIV MUL DUP4 MSTORE SWAP2 PUSH1 0x20 ADD SWAP2 PUSH2 0x2C4 JUMP JUMPDEST DUP3 ADD SWAP2 SWAP1 PUSH1 0x0 MSTORE PUSH1 0x20 PUSH1 0x0 KECCAK256 SWAP1 JUMPDEST DUP2 SLOAD DUP2 MSTORE SWAP1 PUSH1 0x1 ADD SWAP1 PUSH1 0x20 ADD DUP1 DUP4 GT PUSH2 0x2A7 JUMPI DUP3 SWAP1 SUB PUSH1 0x1F AND DUP3 ADD SWAP2 JUMPDEST POP POP POP POP POP SWAP1 DUP1 PUSH1 0x1 ADD SLOAD SWAP1 POP DUP3 JUMP JUMPDEST PUSH32 0x0 PUSH20 0xFFFFFFFFFFFFFFFFFFFFFFFFFFFFFFFFFFFFFFFF AND CALLER PUSH20 0xFFFFFFFFFFFFFFFFFFFFFFFFFFFFFFFFFFFFFFFF AND EQ PUSH2 0x386 JUMPI CALLER PUSH32 0x0 PUSH1 0x40 MLOAD PUSH32 0x1CF993F400000000000000000000000000000000000000000000000000000000 DUP2 MSTORE PUSH1 0x4 ADD PUSH2 0x37D SWAP3 SWAP2 SWAP1 PUSH2 0xE04 JUMP JUMPDEST PUSH1 0x40 MLOAD DUP1 SWAP2 SUB SWAP1 REVERT JUMPDEST PUSH2 0x390 DUP3 DUP3 PUSH2 0x6E0 JUMP JUMPDEST POP POP JUMP JUMPDEST PUSH1 0x0 PUSH1 0x3 SLOAD SWAP1 POP SWAP1 JUMP JUMPDEST PUSH1 0x0 PUSH1 0x1 SLOAD SWAP1 POP SWAP1 JUMP JUMPDEST PUSH1 0x0 PUSH2 0x3C2 PUSH1 0x40 MLOAD DUP1 PUSH1 0x20 ADD PUSH1 0x40 MSTORE DUP1 PUSH1 0x0 DUP2 MSTORE POP PUSH2 0x5DE JUMP JUMPDEST POP SWAP1 POP DUP1 PUSH2 0x428 JUMPI PUSH1 0x2 PUSH1 0x0 SWAP1 SLOAD SWAP1 PUSH2 0x100 EXP SWAP1 DIV PUSH1 0xFF AND PUSH1 0x1 DUP2 GT ISZERO PUSH2 0x3EC JUMPI PUSH2 0x3EB PUSH2 0x13C1 JUMP JUMPDEST JUMPDEST PUSH1 0x40 MLOAD PUSH32 0x436BA0A300000000000000000000000000000000000000000000000000000000 DUP2 MSTORE PUSH1 0x4 ADD PUSH2 0x41F SWAP2 SWAP1 PUSH2 0xEFB JUMP JUMPDEST PUSH1 0x40 MLOAD DUP1 SWAP2 SUB SWAP1 REVERT JUMPDEST PUSH1 0x1 PUSH1 0x2 PUSH1 0x0 PUSH2 0x100 EXP DUP2 SLOAD DUP2 PUSH1 0xFF MUL NOT AND SWAP1 DUP4 PUSH1 0x1 DUP2 GT ISZERO PUSH2 0x44E JUMPI PUSH2 0x44D PUSH2 0x13C1 JUMP JUMPDEST JUMPDEST MUL OR SWAP1 SSTORE POP PUSH1 0x0 PUSH32 0x0 PUSH20 0xFFFFFFFFFFFFFFFFFFFFFFFFFFFFFFFFFFFFFFFF AND PUSH4 0x5D3B1D30 PUSH32 0x0 PUSH32 0x0 PUSH1 0x3 PUSH32 0x0 PUSH1 0x1 PUSH1 0x40 MLOAD DUP7 PUSH4 0xFFFFFFFF AND PUSH1 0xE0 SHL DUP2 MSTORE PUSH1 0x4 ADD PUSH2 0x518 SWAP6 SWAP5 SWAP4 SWAP3 SWAP2 SWAP1 PUSH2 0xE5D JUMP JUMPDEST PUSH1 0x20 PUSH1 0x40 MLOAD DUP1 DUP4 SUB DUP2 PUSH1 0x0 DUP8 DUP1 EXTCODESIZE ISZERO DUP1 ISZERO PUSH2 0x532 JUMPI PUSH1 0x0 DUP1 REVERT JUMPDEST POP GAS CALL ISZERO DUP1 ISZERO PUSH2 0x546 JUMPI RETURNDATASIZE PUSH1 0x0 DUP1 RETURNDATACOPY RETURNDATASIZE PUSH1 0x0 REVERT JUMPDEST POP POP POP POP PUSH1 0x40 MLOAD RETURNDATASIZE PUSH1 0x1F NOT PUSH1 0x1F DUP3 ADD AND DUP3 ADD DUP1 PUSH1 0x40 MSTORE POP DUP2 ADD SWAP1 PUSH2 0x56A SWAP2 SWAP1 PUSH2 0xC91 JUMP JUMPDEST SWAP1 POP DUP1 PUSH32 0x6957BAE45D413EB91A986483FD556679F4D7B69C127F0F204A66DF9F45335398 PUSH1 0x40 MLOAD PUSH1 0x40 MLOAD DUP1 SWAP2 SUB SWAP1 LOG2 POP POP POP POP JUMP JUMPDEST PUSH1 0x0 PUSH1 0x2 PUSH1 0x0 SWAP1 SLOAD SWAP1 PUSH2 0x100 EXP SWAP1 DIV PUSH1 0xFF AND SWAP1 POP SWAP1 JUMP JUMPDEST PUSH1 0x0 PUSH1 0x1 PUSH4 0xFFFFFFFF AND SWAP1 POP SWAP1 JUMP JUMPDEST PUSH1 0x0 PUSH1 0x3 PUSH2 0xFFFF AND SWAP1 POP SWAP1 JUMP JUMPDEST PUSH1 0x0 DUP1 DUP1 SLOAD SWAP1 POP SWAP1 POP SWAP1 JUMP JUMPDEST PUSH1 0x0 PUSH1 0x60 PUSH1 0x0 PUSH1 0x2 PUSH1 0x0 SWAP1 SLOAD SWAP1 PUSH2 0x100 EXP SWAP1 DIV PUSH1 0xFF AND PUSH1 0x1 DUP2 GT ISZERO PUSH2 0x606 JUMPI PUSH2 0x605 PUSH2 0x13C1 JUMP JUMPDEST JUMPDEST PUSH1 0x0 PUSH1 0x1 DUP2 GT ISZERO PUSH2 0x61A JUMPI PUSH2 0x619 PUSH2 0x13C1 JUMP JUMPDEST JUMPDEST EQ SWAP1 POP PUSH1 0x0 PUSH32 0x0 PUSH1 0x3 SLOAD TIMESTAMP PUSH2 0x64E SWAP2 SWAP1 PUSH2 0x11B0 JUMP JUMPDEST GT SWAP1 POP DUP2 DUP1 ISZERO PUSH2 0x65B JUMPI POP DUP1 JUMPDEST SWAP4 POP POP POP SWAP2 POP SWAP2 JUMP JUMPDEST PUSH1 0x0 PUSH1 0x1 DUP2 GT ISZERO PUSH2 0x678 JUMPI PUSH2 0x677 PUSH2 0x13C1 JUMP JUMPDEST JUMPDEST PUSH1 0x2 PUSH1 0x0 SWAP1 SLOAD SWAP1 PUSH2 0x100 EXP SWAP1 DIV PUSH1 0xFF AND PUSH1 0x1 DUP2 GT ISZERO PUSH2 0x69A JUMPI PUSH2 0x699 PUSH2 0x13C1 JUMP JUMPDEST JUMPDEST EQ PUSH2 0x6D1 JUMPI PUSH1 0x40 MLOAD PUSH32 0x2EB8A13900000000000000000000000000000000000000000000000000000000 DUP2 MSTORE PUSH1 0x4 ADD PUSH1 0x40 MLOAD DUP1 SWAP2 SUB SWAP1 REVERT JUMPDEST PUSH2 0x6DD DUP2 PUSH1 0x1 SLOAD PUSH2 0x792 JUMP JUMPDEST POP JUMP JUMPDEST PUSH1 0x0 PUSH1 0x10 PUSH1 0xA PUSH2 0x6F0 SWAP2 SWAP1 PUSH2 0x1092 JUMP JUMPDEST DUP3 PUSH1 0x0 DUP2 MLOAD DUP2 LT PUSH2 0x704 JUMPI PUSH2 0x703 PUSH2 0x141F JUMP JUMPDEST JUMPDEST PUSH1 0x20 MUL PUSH1 0x20 ADD ADD MLOAD PUSH2 0x716 SWAP2 SWAP1 PUSH2 0x1332 JUMP JUMPDEST SWAP1 POP DUP1 PUSH1 0x1 DUP2 SWAP1 SSTORE POP PUSH1 0x0 PUSH1 0x2 PUSH1 0x0 PUSH2 0x100 EXP DUP2 SLOAD DUP2 PUSH1 0xFF MUL NOT AND SWAP1 DUP4 PUSH1 0x1 DUP2 GT ISZERO PUSH2 0x745 JUMPI PUSH2 0x744 PUSH2 0x13C1 JUMP JUMPDEST JUMPDEST MUL OR SWAP1 SSTORE POP PUSH1 0x0 DUP1 PUSH2 0x757 SWAP2 SWAP1 PUSH2 0x851 JUMP JUMPDEST TIMESTAMP PUSH1 0x3 DUP2 SWAP1 SSTORE POP PUSH1 0x1 SLOAD PUSH32 0xA1AB8376F1638500645DDBBC03CF5FEAB3A2E45AD3A6ADCC0216DEE94201AF84 PUSH1 0x40 MLOAD PUSH1 0x40 MLOAD DUP1 SWAP2 SUB SWAP1 LOG2 POP POP POP JUMP JUMPDEST PUSH1 0x0 PUSH1 0x40 MLOAD DUP1 PUSH1 0x40 ADD PUSH1 0x40 MSTORE DUP1 DUP5 DUP2 MSTORE PUSH1 0x20 ADD DUP4 DUP2 MSTORE POP SWAP1 DUP1 PUSH1 0x1 DUP2 SLOAD ADD DUP1 DUP3 SSTORE DUP1 SWAP2 POP POP PUSH1 0x1 SWAP1 SUB SWAP1 PUSH1 0x0 MSTORE PUSH1 0x20 PUSH1 0x0 KECCAK256 SWAP1 PUSH1 0x2 MUL ADD PUSH1 0x0 SWAP1 SWAP2 SWAP1 SWAP2 SWAP1 SWAP2 POP PUSH1 0x0 DUP3 ADD MLOAD DUP2 PUSH1 0x0 ADD SWAP1 DUP1 MLOAD SWAP1 PUSH1 0x20 ADD SWAP1 PUSH2 0x7EE SWAP3 SWAP2 SWAP1 PUSH2 0x875 JUMP JUMPDEST POP PUSH1 0x20 DUP3 ADD MLOAD DUP2 PUSH1 0x1 ADD SSTORE POP POP PUSH1 0x0 PUSH1 0x1 PUSH1 0x0 DUP1 SLOAD SWAP1 POP PUSH2 0x80F SWAP2 SWAP1 PUSH2 0x11B0 JUMP JUMPDEST SWAP1 POP PUSH32 0xBF3206D101E1B4D760EBE40E247BDA1B71C5AF30EFE69BF9235831706FAAEF7C DUP2 DUP5 DUP5 PUSH1 0x40 MLOAD PUSH2 0x844 SWAP4 SWAP3 SWAP2 SWAP1 PUSH2 0xF16 JUMP JUMPDEST PUSH1 0x40 MLOAD DUP1 SWAP2 SUB SWAP1 LOG1 POP POP POP JUMP JUMPDEST POP DUP1 SLOAD PUSH1 0x0 DUP3 SSTORE PUSH1 0x2 MUL SWAP1 PUSH1 0x0 MSTORE PUSH1 0x20 PUSH1 0x0 KECCAK256 SWAP1 DUP2 ADD SWAP1 PUSH2 0x872 SWAP2 SWAP1 PUSH2 0x8FB JUMP JUMPDEST POP JUMP JUMPDEST DUP3 DUP1 SLOAD PUSH2 0x881 SWAP1 PUSH2 0x12CF JUMP JUMPDEST SWAP1 PUSH1 0x0 MSTORE PUSH1 0x20 PUSH1 0x0 KECCAK256 SWAP1 PUSH1 0x1F ADD PUSH1 0x20 SWAP1 DIV DUP2 ADD SWAP3 DUP3 PUSH2 0x8A3 JUMPI PUSH1 0x0 DUP6 SSTORE PUSH2 0x8EA JUMP JUMPDEST DUP3 PUSH1 0x1F LT PUSH2 0x8BC JUMPI DUP1 MLOAD PUSH1 0xFF NOT AND DUP4 DUP1 ADD OR DUP6 SSTORE PUSH2 0x8EA JUMP JUMPDEST DUP3 DUP1 ADD PUSH1 0x1 ADD DUP6 SSTORE DUP3 ISZERO PUSH2 0x8EA JUMPI SWAP2 DUP3 ADD JUMPDEST DUP3 DUP2 GT ISZERO PUSH2 0x8E9 JUMPI DUP3 MLOAD DUP3 SSTORE SWAP2 PUSH1 0x20 ADD SWAP2 SWAP1 PUSH1 0x1 ADD SWAP1 PUSH2 0x8CE JUMP JUMPDEST JUMPDEST POP SWAP1 POP PUSH2 0x8F7 SWAP2 SWAP1 PUSH2 0x92A JUMP JUMPDEST POP SWAP1 JUMP JUMPDEST JUMPDEST DUP1 DUP3 GT ISZERO PUSH2 0x926 JUMPI PUSH1 0x0 DUP1 DUP3 ADD PUSH1 0x0 PUSH2 0x915 SWAP2 SWAP1 PUSH2 0x947 JUMP JUMPDEST PUSH1 0x1 DUP3 ADD PUSH1 0x0 SWAP1 SSTORE POP PUSH1 0x2 ADD PUSH2 0x8FC JUMP JUMPDEST POP SWAP1 JUMP JUMPDEST JUMPDEST DUP1 DUP3 GT ISZERO PUSH2 0x943 JUMPI PUSH1 0x0 DUP2 PUSH1 0x0 SWAP1 SSTORE POP PUSH1 0x1 ADD PUSH2 0x92B JUMP JUMPDEST POP SWAP1 JUMP JUMPDEST POP DUP1 SLOAD PUSH2 0x953 SWAP1 PUSH2 0x12CF JUMP JUMPDEST PUSH1 0x0 DUP3 SSTORE DUP1 PUSH1 0x1F LT PUSH2 0x965 JUMPI POP PUSH2 0x984 JUMP JUMPDEST PUSH1 0x1F ADD PUSH1 0x20 SWAP1 DIV SWAP1 PUSH1 0x0 MSTORE PUSH1 0x20 PUSH1 0x0 KECCAK256 SWAP1 DUP2 ADD SWAP1 PUSH2 0x983 SWAP2 SWAP1 PUSH2 0x92A JUMP JUMPDEST JUMPDEST POP JUMP JUMPDEST PUSH1 0x0 PUSH2 0x99A PUSH2 0x995 DUP5 PUSH2 0xF79 JUMP JUMPDEST PUSH2 0xF54 JUMP JUMPDEST SWAP1 POP DUP1 DUP4 DUP3 MSTORE PUSH1 0x20 DUP3 ADD SWAP1 POP DUP3 DUP6 PUSH1 0x20 DUP7 MUL DUP3 ADD GT ISZERO PUSH2 0x9BD JUMPI PUSH2 0x9BC PUSH2 0x1487 JUMP JUMPDEST JUMPDEST PUSH1 0x0 JUMPDEST DUP6 DUP2 LT ISZERO PUSH2 0x9ED JUMPI DUP2 PUSH2 0x9D3 DUP9 DUP3 PUSH2 0xB5B JUMP JUMPDEST DUP5 MSTORE PUSH1 0x20 DUP5 ADD SWAP4 POP PUSH1 0x20 DUP4 ADD SWAP3 POP POP PUSH1 0x1 DUP2 ADD SWAP1 POP PUSH2 0x9C0 JUMP JUMPDEST POP POP POP SWAP4 SWAP3 POP POP POP JUMP JUMPDEST PUSH1 0x0 PUSH2 0xA0A PUSH2 0xA05 DUP5 PUSH2 0xFA5 JUMP JUMPDEST PUSH2 0xF54 JUMP JUMPDEST SWAP1 POP DUP3 DUP2 MSTORE PUSH1 0x20 DUP2 ADD DUP5 DUP5 DUP5 ADD GT ISZERO PUSH2 0xA26 JUMPI PUSH2 0xA25 PUSH2 0x148C JUMP JUMPDEST JUMPDEST PUSH2 0xA31 DUP5 DUP3 DUP6 PUSH2 0x128D JUMP JUMPDEST POP SWAP4 SWAP3 POP POP POP JUMP JUMPDEST PUSH1 0x0 PUSH2 0xA4C PUSH2 0xA47 DUP5 PUSH2 0xFD6 JUMP JUMPDEST PUSH2 0xF54 JUMP JUMPDEST SWAP1 POP DUP3 DUP2 MSTORE PUSH1 0x20 DUP2 ADD DUP5 DUP5 DUP5 ADD GT ISZERO PUSH2 0xA68 JUMPI PUSH2 0xA67 PUSH2 0x148C JUMP JUMPDEST JUMPDEST PUSH2 0xA73 DUP5 DUP3 DUP6 PUSH2 0x128D JUMP JUMPDEST POP SWAP4 SWAP3 POP POP POP JUMP JUMPDEST PUSH1 0x0 DUP3 PUSH1 0x1F DUP4 ADD SLT PUSH2 0xA90 JUMPI PUSH2 0xA8F PUSH2 0x1482 JUMP JUMPDEST JUMPDEST DUP2 CALLDATALOAD PUSH2 0xAA0 DUP5 DUP3 PUSH1 0x20 DUP7 ADD PUSH2 0x987 JUMP JUMPDEST SWAP2 POP POP SWAP3 SWAP2 POP POP JUMP JUMPDEST PUSH1 0x0 DUP1 DUP4 PUSH1 0x1F DUP5 ADD SLT PUSH2 0xABF JUMPI PUSH2 0xABE PUSH2 0x1482 JUMP JUMPDEST JUMPDEST DUP3 CALLDATALOAD SWAP1 POP PUSH8 0xFFFFFFFFFFFFFFFF DUP2 GT ISZERO PUSH2 0xADC JUMPI PUSH2 0xADB PUSH2 0x147D JUMP JUMPDEST JUMPDEST PUSH1 0x20 DUP4 ADD SWAP2 POP DUP4 PUSH1 0x1 DUP3 MUL DUP4 ADD GT ISZERO PUSH2 0xAF8 JUMPI PUSH2 0xAF7 PUSH2 0x1487 JUMP JUMPDEST JUMPDEST SWAP3 POP SWAP3 SWAP1 POP JUMP JUMPDEST PUSH1 0x0 DUP3 PUSH1 0x1F DUP4 ADD SLT PUSH2 0xB14 JUMPI PUSH2 0xB13 PUSH2 0x1482 JUMP JUMPDEST JUMPDEST DUP2 CALLDATALOAD PUSH2 0xB24 DUP5 DUP3 PUSH1 0x20 DUP7 ADD PUSH2 0x9F7 JUMP JUMPDEST SWAP2 POP POP SWAP3 SWAP2 POP POP JUMP JUMPDEST PUSH1 0x0 DUP3 PUSH1 0x1F DUP4 ADD SLT PUSH2 0xB42 JUMPI PUSH2 0xB41 PUSH2 0x1482 JUMP JUMPDEST JUMPDEST DUP2 CALLDATALOAD PUSH2 0xB52 DUP5 DUP3 PUSH1 0x20 DUP7 ADD PUSH2 0xA39 JUMP JUMPDEST SWAP2 POP POP SWAP3 SWAP2 POP POP JUMP JUMPDEST PUSH1 0x0 DUP2 CALLDATALOAD SWAP1 POP PUSH2 0xB6A DUP2 PUSH2 0x14CD JUMP JUMPDEST SWAP3 SWAP2 POP POP JUMP JUMPDEST PUSH1 0x0 DUP2 MLOAD SWAP1 POP PUSH2 0xB7F DUP2 PUSH2 0x14CD JUMP JUMPDEST SWAP3 SWAP2 POP POP JUMP JUMPDEST PUSH1 0x0 DUP1 PUSH1 0x20 DUP4 DUP6 SUB SLT ISZERO PUSH2 0xB9C JUMPI PUSH2 0xB9B PUSH2 0x1496 JUMP JUMPDEST JUMPDEST PUSH1 0x0 DUP4 ADD CALLDATALOAD PUSH8 0xFFFFFFFFFFFFFFFF DUP2 GT ISZERO PUSH2 0xBBA JUMPI PUSH2 0xBB9 PUSH2 0x1491 JUMP JUMPDEST JUMPDEST PUSH2 0xBC6 DUP6 DUP3 DUP7 ADD PUSH2 0xAA9 JUMP JUMPDEST SWAP3 POP SWAP3 POP POP SWAP3 POP SWAP3 SWAP1 POP JUMP JUMPDEST PUSH1 0x0 PUSH1 0x20 DUP3 DUP5 SUB SLT ISZERO PUSH2 0xBE8 JUMPI PUSH2 0xBE7 PUSH2 0x1496 JUMP JUMPDEST JUMPDEST PUSH1 0x0 DUP3 ADD CALLDATALOAD PUSH8 0xFFFFFFFFFFFFFFFF DUP2 GT ISZERO PUSH2 0xC06 JUMPI PUSH2 0xC05 PUSH2 0x1491 JUMP JUMPDEST JUMPDEST PUSH2 0xC12 DUP5 DUP3 DUP6 ADD PUSH2 0xAFF JUMP JUMPDEST SWAP2 POP POP SWAP3 SWAP2 POP POP JUMP JUMPDEST PUSH1 0x0 PUSH1 0x20 DUP3 DUP5 SUB SLT ISZERO PUSH2 0xC31 JUMPI PUSH2 0xC30 PUSH2 0x1496 JUMP JUMPDEST JUMPDEST PUSH1 0x0 DUP3 ADD CALLDATALOAD PUSH8 0xFFFFFFFFFFFFFFFF DUP2 GT ISZERO PUSH2 0xC4F JUMPI PUSH2 0xC4E PUSH2 0x1491 JUMP JUMPDEST JUMPDEST PUSH2 0xC5B DUP5 DUP3 DUP6 ADD PUSH2 0xB2D JUMP JUMPDEST SWAP2 POP POP SWAP3 SWAP2 POP POP JUMP JUMPDEST PUSH1 0x0 PUSH1 0x20 DUP3 DUP5 SUB SLT ISZERO PUSH2 0xC7A JUMPI PUSH2 0xC79 PUSH2 0x1496 JUMP JUMPDEST JUMPDEST PUSH1 0x0 PUSH2 0xC88 DUP5 DUP3 DUP6 ADD PUSH2 0xB5B JUMP JUMPDEST SWAP2 POP POP SWAP3 SWAP2 POP POP JUMP JUMPDEST PUSH1 0x0 PUSH1 0x20 DUP3 DUP5 SUB SLT ISZERO PUSH2 0xCA7 JUMPI PUSH2 0xCA6 PUSH2 0x1496 JUMP JUMPDEST JUMPDEST PUSH1 0x0 PUSH2 0xCB5 DUP5 DUP3 DUP6 ADD PUSH2 0xB70 JUMP JUMPDEST SWAP2 POP POP SWAP3 SWAP2 POP POP JUMP JUMPDEST PUSH1 0x0 DUP1 PUSH1 0x40 DUP4 DUP6 SUB SLT ISZERO PUSH2 0xCD5 JUMPI PUSH2 0xCD4 PUSH2 0x1496 JUMP JUMPDEST JUMPDEST PUSH1 0x0 PUSH2 0xCE3 DUP6 DUP3 DUP7 ADD PUSH2 0xB5B JUMP JUMPDEST SWAP3 POP POP PUSH1 0x20 DUP4 ADD CALLDATALOAD PUSH8 0xFFFFFFFFFFFFFFFF DUP2 GT ISZERO PUSH2 0xD04 JUMPI PUSH2 0xD03 PUSH2 0x1491 JUMP JUMPDEST JUMPDEST PUSH2 0xD10 DUP6 DUP3 DUP7 ADD PUSH2 0xA7B JUMP JUMPDEST SWAP2 POP POP SWAP3 POP SWAP3 SWAP1 POP JUMP JUMPDEST PUSH2 0xD23 DUP2 PUSH2 0x11E4 JUMP JUMPDEST DUP3 MSTORE POP POP JUMP JUMPDEST PUSH2 0xD32 DUP2 PUSH2 0x11F6 JUMP JUMPDEST DUP3 MSTORE POP POP JUMP JUMPDEST PUSH2 0xD41 DUP2 PUSH2 0x1202 JUMP JUMPDEST DUP3 MSTORE POP POP JUMP JUMPDEST PUSH1 0x0 PUSH2 0xD52 DUP3 PUSH2 0x1007 JUMP JUMPDEST PUSH2 0xD5C DUP2 DUP6 PUSH2 0x101D JUMP JUMPDEST SWAP4 POP PUSH2 0xD6C DUP2 DUP6 PUSH1 0x20 DUP7 ADD PUSH2 0x129C JUMP JUMPDEST PUSH2 0xD75 DUP2 PUSH2 0x149B JUMP JUMPDEST DUP5 ADD SWAP2 POP POP SWAP3 SWAP2 POP POP JUMP JUMPDEST PUSH2 0xD89 DUP2 PUSH2 0x127B JUMP JUMPDEST DUP3 MSTORE POP POP JUMP JUMPDEST PUSH1 0x0 PUSH2 0xD9A DUP3 PUSH2 0x1012 JUMP JUMPDEST PUSH2 0xDA4 DUP2 DUP6 PUSH2 0x102E JUMP JUMPDEST SWAP4 POP PUSH2 0xDB4 DUP2 DUP6 PUSH1 0x20 DUP7 ADD PUSH2 0x129C JUMP JUMPDEST PUSH2 0xDBD DUP2 PUSH2 0x149B JUMP JUMPDEST DUP5 ADD SWAP2 POP POP SWAP3 SWAP2 POP POP JUMP JUMPDEST PUSH2 0xDD1 DUP2 PUSH2 0x121F JUMP JUMPDEST DUP3 MSTORE POP POP JUMP JUMPDEST PUSH2 0xDE0 DUP2 PUSH2 0x124D JUMP JUMPDEST DUP3 MSTORE POP POP JUMP JUMPDEST PUSH2 0xDEF DUP2 PUSH2 0x1257 JUMP JUMPDEST DUP3 MSTORE POP POP JUMP JUMPDEST PUSH2 0xDFE DUP2 PUSH2 0x1267 JUMP JUMPDEST DUP3 MSTORE POP POP JUMP JUMPDEST PUSH1 0x0 PUSH1 0x40 DUP3 ADD SWAP1 POP PUSH2 0xE19 PUSH1 0x0 DUP4 ADD DUP6 PUSH2 0xD1A JUMP JUMPDEST PUSH2 0xE26 PUSH1 0x20 DUP4 ADD DUP5 PUSH2 0xD1A JUMP JUMPDEST SWAP4 SWAP3 POP POP POP JUMP JUMPDEST PUSH1 0x0 PUSH1 0x40 DUP3 ADD SWAP1 POP PUSH2 0xE42 PUSH1 0x0 DUP4 ADD DUP6 PUSH2 0xD29 JUMP JUMPDEST DUP2 DUP2 SUB PUSH1 0x20 DUP4 ADD MSTORE PUSH2 0xE54 DUP2 DUP5 PUSH2 0xD47 JUMP JUMPDEST SWAP1 POP SWAP4 SWAP3 POP POP POP JUMP JUMPDEST PUSH1 0x0 PUSH1 0xA0 DUP3 ADD SWAP1 POP PUSH2 0xE72 PUSH1 0x0 DUP4 ADD DUP9 PUSH2 0xD38 JUMP JUMPDEST PUSH2 0xE7F PUSH1 0x20 DUP4 ADD DUP8 PUSH2 0xDF5 JUMP JUMPDEST PUSH2 0xE8C PUSH1 0x40 DUP4 ADD DUP7 PUSH2 0xDC8 JUMP JUMPDEST PUSH2 0xE99 PUSH1 0x60 DUP4 ADD DUP6 PUSH2 0xDE6 JUMP JUMPDEST PUSH2 0xEA6 PUSH1 0x80 DUP4 ADD DUP5 PUSH2 0xDE6 JUMP JUMPDEST SWAP7 SWAP6 POP POP POP POP POP POP JUMP JUMPDEST PUSH1 0x0 PUSH1 0x20 DUP3 ADD SWAP1 POP PUSH2 0xEC5 PUSH1 0x0 DUP4 ADD DUP5 PUSH2 0xD80 JUMP JUMPDEST SWAP3 SWAP2 POP POP JUMP JUMPDEST PUSH1 0x0 PUSH1 0x40 DUP3 ADD SWAP1 POP DUP2 DUP2 SUB PUSH1 0x0 DUP4 ADD MSTORE PUSH2 0xEE5 DUP2 DUP6 PUSH2 0xD8F JUMP JUMPDEST SWAP1 POP PUSH2 0xEF4 PUSH1 0x20 DUP4 ADD DUP5 PUSH2 0xDD7 JUMP JUMPDEST SWAP4 SWAP3 POP POP POP JUMP JUMPDEST PUSH1 0x0 PUSH1 0x20 DUP3 ADD SWAP1 POP PUSH2 0xF10 PUSH1 0x0 DUP4 ADD DUP5 PUSH2 0xDD7 JUMP JUMPDEST SWAP3 SWAP2 POP POP JUMP JUMPDEST PUSH1 0x0 PUSH1 0x60 DUP3 ADD SWAP1 POP PUSH2 0xF2B PUSH1 0x0 DUP4 ADD DUP7 PUSH2 0xDD7 JUMP JUMPDEST DUP2 DUP2 SUB PUSH1 0x20 DUP4 ADD MSTORE PUSH2 0xF3D DUP2 DUP6 PUSH2 0xD8F JUMP JUMPDEST SWAP1 POP PUSH2 0xF4C PUSH1 0x40 DUP4 ADD DUP5 PUSH2 0xDD7 JUMP JUMPDEST SWAP5 SWAP4 POP POP POP POP JUMP JUMPDEST PUSH1 0x0 PUSH2 0xF5E PUSH2 0xF6F JUMP JUMPDEST SWAP1 POP PUSH2 0xF6A DUP3 DUP3 PUSH2 0x1301 JUMP JUMPDEST SWAP2 SWAP1 POP JUMP JUMPDEST PUSH1 0x0 PUSH1 0x40 MLOAD SWAP1 POP SWAP1 JUMP JUMPDEST PUSH1 0x0 PUSH8 0xFFFFFFFFFFFFFFFF DUP3 GT ISZERO PUSH2 0xF94 JUMPI PUSH2 0xF93 PUSH2 0x144E JUMP JUMPDEST JUMPDEST PUSH1 0x20 DUP3 MUL SWAP1 POP PUSH1 0x20 DUP2 ADD SWAP1 POP SWAP2 SWAP1 POP JUMP JUMPDEST PUSH1 0x0 PUSH8 0xFFFFFFFFFFFFFFFF DUP3 GT ISZERO PUSH2 0xFC0 JUMPI PUSH2 0xFBF PUSH2 0x144E JUMP JUMPDEST JUMPDEST PUSH2 0xFC9 DUP3 PUSH2 0x149B JUMP JUMPDEST SWAP1 POP PUSH1 0x20 DUP2 ADD SWAP1 POP SWAP2 SWAP1 POP JUMP JUMPDEST PUSH1 0x0 PUSH8 0xFFFFFFFFFFFFFFFF DUP3 GT ISZERO PUSH2 0xFF1 JUMPI PUSH2 0xFF0 PUSH2 0x144E JUMP JUMPDEST JUMPDEST PUSH2 0xFFA DUP3 PUSH2 0x149B JUMP JUMPDEST SWAP1 POP PUSH1 0x20 DUP2 ADD SWAP1 POP SWAP2 SWAP1 POP JUMP JUMPDEST PUSH1 0x0 DUP2 MLOAD SWAP1 POP SWAP2 SWAP1 POP JUMP JUMPDEST PUSH1 0x0 DUP2 MLOAD SWAP1 POP SWAP2 SWAP1 POP JUMP JUMPDEST PUSH1 0x0 DUP3 DUP3 MSTORE PUSH1 0x20 DUP3 ADD SWAP1 POP SWAP3 SWAP2 POP POP JUMP JUMPDEST PUSH1 0x0 DUP3 DUP3 MSTORE PUSH1 0x20 DUP3 ADD SWAP1 POP SWAP3 SWAP2 POP POP JUMP JUMPDEST PUSH1 0x0 DUP1 DUP3 SWAP2 POP DUP4 SWAP1 POP JUMPDEST PUSH1 0x1 DUP6 GT ISZERO PUSH2 0x1089 JUMPI DUP1 DUP7 DIV DUP2 GT ISZERO PUSH2 0x1065 JUMPI PUSH2 0x1064 PUSH2 0x1363 JUMP JUMPDEST JUMPDEST PUSH1 0x1 DUP6 AND ISZERO PUSH2 0x1074 JUMPI DUP1 DUP3 MUL SWAP2 POP JUMPDEST DUP1 DUP2 MUL SWAP1 POP PUSH2 0x1082 DUP6 PUSH2 0x14AC JUMP JUMPDEST SWAP5 POP PUSH2 0x1049 JUMP JUMPDEST SWAP5 POP SWAP5 SWAP3 POP POP POP JUMP JUMPDEST PUSH1 0x0 PUSH2 0x109D DUP3 PUSH2 0x124D JUMP JUMPDEST SWAP2 POP PUSH2 0x10A8 DUP4 PUSH2 0x124D JUMP JUMPDEST SWAP3 POP PUSH2 0x10D5 PUSH32 0xFFFFFFFFFFFFFFFFFFFFFFFFFFFFFFFFFFFFFFFFFFFFFFFFFFFFFFFFFFFFFFFF DUP5 DUP5 PUSH2 0x10DD JUMP JUMPDEST SWAP1 POP SWAP3 SWAP2 POP POP JUMP JUMPDEST PUSH1 0x0 DUP3 PUSH2 0x10ED JUMPI PUSH1 0x1 SWAP1 POP PUSH2 0x11A9 JUMP JUMPDEST DUP2 PUSH2 0x10FB JUMPI PUSH1 0x0 SWAP1 POP PUSH2 0x11A9 JUMP JUMPDEST DUP2 PUSH1 0x1 DUP2 EQ PUSH2 0x1111 JUMPI PUSH1 0x2 DUP2 EQ PUSH2 0x111B JUMPI PUSH2 0x114A JUMP JUMPDEST PUSH1 0x1 SWAP2 POP POP PUSH2 0x11A9 JUMP JUMPDEST PUSH1 0xFF DUP5 GT ISZERO PUSH2 0x112D JUMPI PUSH2 0x112C PUSH2 0x1363 JUMP JUMPDEST JUMPDEST DUP4 PUSH1 0x2 EXP SWAP2 POP DUP5 DUP3 GT ISZERO PUSH2 0x1144 JUMPI PUSH2 0x1143 PUSH2 0x1363 JUMP JUMPDEST JUMPDEST POP PUSH2 0x11A9 JUMP JUMPDEST POP PUSH1 0x20 DUP4 LT PUSH2 0x133 DUP4 LT AND PUSH1 0x4E DUP5 LT PUSH1 0xB DUP5 LT AND OR ISZERO PUSH2 0x117F JUMPI DUP3 DUP3 EXP SWAP1 POP DUP4 DUP2 GT ISZERO PUSH2 0x117A JUMPI PUSH2 0x1179 PUSH2 0x1363 JUMP JUMPDEST JUMPDEST PUSH2 0x11A9 JUMP JUMPDEST PUSH2 0x118C DUP5 DUP5 DUP5 PUSH1 0x1 PUSH2 0x103F JUMP JUMPDEST SWAP3 POP SWAP1 POP DUP2 DUP5 DIV DUP2 GT ISZERO PUSH2 0x11A3 JUMPI PUSH2 0x11A2 PUSH2 0x1363 JUMP JUMPDEST JUMPDEST DUP2 DUP2 MUL SWAP1 POP JUMPDEST SWAP4 SWAP3 POP POP POP JUMP JUMPDEST PUSH1 0x0 PUSH2 0x11BB DUP3 PUSH2 0x124D JUMP JUMPDEST SWAP2 POP PUSH2 0x11C6 DUP4 PUSH2 0x124D JUMP JUMPDEST SWAP3 POP DUP3 DUP3 LT ISZERO PUSH2 0x11D9 JUMPI PUSH2 0x11D8 PUSH2 0x1363 JUMP JUMPDEST JUMPDEST DUP3 DUP3 SUB SWAP1 POP SWAP3 SWAP2 POP POP JUMP JUMPDEST PUSH1 0x0 PUSH2 0x11EF DUP3 PUSH2 0x122D JUMP JUMPDEST SWAP1 POP SWAP2 SWAP1 POP JUMP JUMPDEST PUSH1 0x0 DUP2 ISZERO ISZERO SWAP1 POP SWAP2 SWAP1 POP JUMP JUMPDEST PUSH1 0x0 DUP2 SWAP1 POP SWAP2 SWAP1 POP JUMP JUMPDEST PUSH1 0x0 DUP2 SWAP1 POP PUSH2 0x121A DUP3 PUSH2 0x14B9 JUMP JUMPDEST SWAP2 SWAP1 POP JUMP JUMPDEST PUSH1 0x0 PUSH2 0xFFFF DUP3 AND SWAP1 POP SWAP2 SWAP1 POP JUMP JUMPDEST PUSH1 0x0 PUSH20 0xFFFFFFFFFFFFFFFFFFFFFFFFFFFFFFFFFFFFFFFF DUP3 AND SWAP1 POP SWAP2 SWAP1 POP JUMP JUMPDEST PUSH1 0x0 DUP2 SWAP1 POP SWAP2 SWAP1 POP JUMP JUMPDEST PUSH1 0x0 PUSH4 0xFFFFFFFF DUP3 AND SWAP1 POP SWAP2 SWAP1 POP JUMP JUMPDEST PUSH1 0x0 PUSH8 0xFFFFFFFFFFFFFFFF DUP3 AND SWAP1 POP SWAP2 SWAP1 POP JUMP JUMPDEST PUSH1 0x0 PUSH2 0x1286 DUP3 PUSH2 0x120C JUMP JUMPDEST SWAP1 POP SWAP2 SWAP1 POP JUMP JUMPDEST DUP3 DUP2 DUP4 CALLDATACOPY PUSH1 0x0 DUP4 DUP4 ADD MSTORE POP POP POP JUMP JUMPDEST PUSH1 0x0 JUMPDEST DUP4 DUP2 LT ISZERO PUSH2 0x12BA JUMPI DUP1 DUP3 ADD MLOAD DUP2 DUP5 ADD MSTORE PUSH1 0x20 DUP2 ADD SWAP1 POP PUSH2 0x129F JUMP JUMPDEST DUP4 DUP2 GT ISZERO PUSH2 0x12C9 JUMPI PUSH1 0x0 DUP5 DUP5 ADD MSTORE JUMPDEST POP POP POP POP JUMP JUMPDEST PUSH1 0x0 PUSH1 0x2 DUP3 DIV SWAP1 POP PUSH1 0x1 DUP3 AND DUP1 PUSH2 0x12E7 JUMPI PUSH1 0x7F DUP3 AND SWAP2 POP JUMPDEST PUSH1 0x20 DUP3 LT DUP2 EQ ISZERO PUSH2 0x12FB JUMPI PUSH2 0x12FA PUSH2 0x13F0 JUMP JUMPDEST JUMPDEST POP SWAP2 SWAP1 POP JUMP JUMPDEST PUSH2 0x130A DUP3 PUSH2 0x149B JUMP JUMPDEST DUP2 ADD DUP2 DUP2 LT PUSH8 0xFFFFFFFFFFFFFFFF DUP3 GT OR ISZERO PUSH2 0x1329 JUMPI PUSH2 0x1328 PUSH2 0x144E JUMP JUMPDEST JUMPDEST DUP1 PUSH1 0x40 MSTORE POP POP POP JUMP JUMPDEST PUSH1 0x0 PUSH2 0x133D DUP3 PUSH2 0x124D JUMP JUMPDEST SWAP2 POP PUSH2 0x1348 DUP4 PUSH2 0x124D JUMP JUMPDEST SWAP3 POP DUP3 PUSH2 0x1358 JUMPI PUSH2 0x1357 PUSH2 0x1392 JUMP JUMPDEST JUMPDEST DUP3 DUP3 MOD SWAP1 POP SWAP3 SWAP2 POP POP JUMP JUMPDEST PUSH32 0x4E487B7100000000000000000000000000000000000000000000000000000000 PUSH1 0x0 MSTORE PUSH1 0x11 PUSH1 0x4 MSTORE PUSH1 0x24 PUSH1 0x0 REVERT JUMPDEST PUSH32 0x4E487B7100000000000000000000000000000000000000000000000000000000 PUSH1 0x0 MSTORE PUSH1 0x12 PUSH1 0x4 MSTORE PUSH1 0x24 PUSH1 0x0 REVERT JUMPDEST PUSH32 0x4E487B7100000000000000000000000000000000000000000000000000000000 PUSH1 0x0 MSTORE PUSH1 0x21 PUSH1 0x4 MSTORE PUSH1 0x24 PUSH1 0x0 REVERT JUMPDEST PUSH32 0x4E487B7100000000000000000000000000000000000000000000000000000000 PUSH1 0x0 MSTORE PUSH1 0x22 PUSH1 0x4 MSTORE PUSH1 0x24 PUSH1 0x0 REVERT JUMPDEST PUSH32 0x4E487B7100000000000000000000000000000000000000000000000000000000 PUSH1 0x0 MSTORE PUSH1 0x32 PUSH1 0x4 MSTORE PUSH1 0x24 PUSH1 0x0 REVERT JUMPDEST PUSH32 0x4E487B7100000000000000000000000000000000000000000000000000000000 PUSH1 0x0 MSTORE PUSH1 0x41 PUSH1 0x4 MSTORE PUSH1 0x24 PUSH1 0x0 REVERT JUMPDEST PUSH1 0x0 DUP1 REVERT JUMPDEST PUSH1 0x0 DUP1 REVERT JUMPDEST PUSH1 0x0 DUP1 REVERT JUMPDEST PUSH1 0x0 DUP1 REVERT JUMPDEST PUSH1 0x0 DUP1 REVERT JUMPDEST PUSH1 0x0 DUP1 REVERT JUMPDEST PUSH1 0x0 PUSH1 0x1F NOT PUSH1 0x1F DUP4 ADD AND SWAP1 POP SWAP2 SWAP1 POP JUMP JUMPDEST PUSH1 0x0 DUP2 PUSH1 0x1 SHR SWAP1 POP SWAP2 SWAP1 POP JUMP JUMPDEST PUSH1 0x2 DUP2 LT PUSH2 0x14CA JUMPI PUSH2 0x14C9 PUSH2 0x13C1 JUMP JUMPDEST JUMPDEST POP JUMP JUMPDEST PUSH2 0x14D6 DUP2 PUSH2 0x124D JUMP JUMPDEST DUP2 EQ PUSH2 0x14E1 JUMPI PUSH1 0x0 DUP1 REVERT JUMPDEST POP JUMP INVALID LOG2 PUSH5 0x6970667358 0x22 SLT KECCAK256 CALLCODE INVALID 0xE7 LOG0 GT 0x2C 0xC1 EXTCODESIZE GT 0xD3 0xBB DUP12 0xCA 0xA7 0xDF XOR 0xEE 0xC3 0x5C PUSH2 0x4E1 0x5D JUMP 0xC6 DUP2 0xB3 LOG1 0xCB 0xA5 PUSH25 0xFD64736F6C6343000807003300000000000000000000000000 "},"gasEstimates":{"creation":{"codeDepositCost":"1080400","executionCost":"infinite","totalCost":"infinite"},"external":{"checkUpkeep(bytes)":"infinite","createRandomBackground(string)":"infinite","getBackgroundFactoryState()":"2568","getLatestTimeStamp()":"2482","getNumberOfBackgrounds()":"2511","getNumwords()":"365","getRecentRandomBackground()":"2504","getRequestConfirmations()":"387","performUpkeep(bytes)":"infinite","rawFulfillRandomWords(uint256,uint256[])":"infinite","s_backgrounds(uint256)":"infinite"},"internal":{"_createBackground(string memory,uint256)":"infinite","fulfillRandomWords(uint256,uint256[] memory)":"infinite"}},"methodIdentifiers":{"checkUpkeep(bytes)":"6e04ff0d","createRandomBackground(string)":"c4df7ad5","getBackgroundFactoryState()":"51c66b3f","getLatestTimeStamp()":"320229eb","getNumberOfBackgrounds()":"69657573","getNumwords()":"59f1b23c","getRecentRandomBackground()":"36240218","getRequestConfirmations()":"5f1b0fd8","performUpkeep(bytes)":"4585e33b","rawFulfillRandomWords(uint256,uint256[])":"1fe543e3","s_backgrounds(uint256)":"0f172b28"}},"storageLayout":{"storage":[{"astId":1157,"contract":"contracts/test/BackgroundFactory.sol:BackgroundFactory","label":"s_backgrounds","offset":0,"slot":"0","type":"t_array(t_struct(Background)1153_storage)dyn_storage"},{"astId":1182,"contract":"contracts/test/BackgroundFactory.sol:BackgroundFactory","label":"s_recentRandomDna","offset":0,"slot":"1","type":"t_uint256"},{"astId":1185,"contract":"contracts/test/BackgroundFactory.sol:BackgroundFactory","label":"s_backgroundFactoryState","offset":0,"slot":"2","type":"t_enum(BackgroundFactoryState)1148"},{"astId":1187,"contract":"contracts/test/BackgroundFactory.sol:BackgroundFactory","label":"s_lastTimeStamp","offset":0,"slot":"3","type":"t_uint256"}],"types":{"t_array(t_struct(Background)1153_storage)dyn_storage":{"base":"t_struct(Background)1153_storage","encoding":"dynamic_array","label":"struct BackgroundFactory.Background[]","numberOfBytes":"32"},"t_enum(BackgroundFactoryState)1148":{"encoding":"inplace","label":"enum BackgroundFactory.BackgroundFactoryState","numberOfBytes":"1"},"t_string_storage":{"encoding":"bytes","label":"string","numberOfBytes":"32"},"t_struct(Background)1153_storage":{"encoding":"inplace","label":"struct BackgroundFactory.Background","members":[{"astId":1150,"contract":"contracts/test/BackgroundFactory.sol:BackgroundFactory","label":"name","offset":0,"slot":"0","type":"t_string_storage"},{"astId":1152,"contract":"contracts/test/BackgroundFactory.sol:BackgroundFactory","label":"dna","offset":0,"slot":"1","type":"t_uint256"}],"numberOfBytes":"64"},"t_uint256":{"encoding":"inplace","label":"uint256","numberOfBytes":"32"}}},"userdoc":{"kind":"user","methods":{},"version":1}}}}